:100000000C94EC050C9414060C9414060C94140631
:100010000C9414060C9414060C9414060C941406F8
:100020000C9414060C9414060C947D0B0C94EF0B9A
:100030000C9414060C9414060C9414060C941406D8
:100040000C9414060C9414060C9414060C941406C8
:100050000C9414060C9414060C9414060C94340F8F
:100060000C9414060C9414060C9414060C941406A8
:100070000C9414060C9414060C9414060C94140698
:100080000C942C100C9414060C9414060C94140666
:100090000C9414060C9414060C9414060C94140678
:1000A0000C9414060C9414060C9414060C0C2C518D
:1000B000410AD45C5CD40A41512C020109040401B8
:1000C000010404090102080824991A04041A992455
:1000D0000606251A0D0D1A250404090606094249CB
:1000E0005454454E2100090900107864663F3E04CF
:1000F00000000000000000000000090900103C4C56
:10010000CCF8F840000000000000010000000705E6
:100110001E1E1713171E1E09090040F8F8CC4C3C90
:100120001000000000010000000000090900043E6A
:100130003F66647810000000000000000000000727
:10014000050F0F1D191D0F0F14001E0064001E0067
:1001500028001E005A001E000A001E0050001E004B
:1001600063001E0018011E00C7001E0018011E00BB
:100170002C011E00FA001E0096001E00B40028008C
:1001800064002800500028000080507265737320BE
:100190004200504155534544000A50726573732024
:1001A0004220746F207265706C6179000A48692D75
:1001B00053636F72653A200053636F72653A200093
:1001C00047616D65204F766572210008070E1F3F5D
:1001D0007E7E3F1F0E0A000A507265737320412015
:1001E000746F205374617274000A20202055502FC0
:1001F000444E202D205061757365000A2020204256
:10020000202D20426F6D62000A20202041202D20E9
:100210004D697373696C65000A2020204C2F5220B1
:100220002D204D6F7665000A496E20506C61793A39
:100230000053657474696E67733A0A00F0F89C8E17
:100240008783878E9CF8F00000FEFF0303030303FF
:10025000070EFCF80000FEFF0303030303070EFC78
:10026000F80000FFFF00000000000000FFFF00009A
:10027000FEFF8383838383C7EE7C380000F8FC0E87
:1002800007030303070EFCF800003F7FE0C08080F7
:10029000C0E07F3FFFFF01010101010101FFFF00FD
:1002A00000FFFF0C0C0C0C1C3E77E3C100007FFF2D
:1002B000C0C0C0C0C0E0703F1F00001F3F70E0C062
:1002C000C0C0E0703F1F00007FFFC1C1C1C1C1E3DA
:1002D000773E1C00001F3F70E0C0C0C0E0703F1FB1
:1002E000000000000001FFFF01000000D5F08D14A8
:1002F000A1C881CFD9F1AF20004D696E65210041C1
:100300006C69656E00000010000000EEFEFEFEFE4F
:10031000BE7E7E7C7CFCF9FCFCFEFEFEFEFEFEFE4C
:10032000FEFCFC7878302620101010101010109071
:10033000E08000008080404020201010101010202D
:10034000202020100804020101000000C00000006D
:10035000000080808000000000000000000000001D
:10036000000001030FFFFFFCF00000000000000090
:10037000C1FFFF00000000000000000000000000BE
:100380000000000000000C0000F88FFFFFFFFFFFDF
:10039000FFFCC00080C06060301D0F874743E1E173
:1003A000F01008080414242444044CF08000030CCA
:1003B000142F438100000000000000000000073CF3
:1003C0002020202020202060C080C060733E7C5C04
:1003D0008E8F07070F1F3E7CF8E0C080000000E012
:1003E0003018F08080FFFFFF7F18080878C0F0FE0B
:1003F000FFFF7F20202020A0E00000000000000080
:1004000000000000000000000F31DFFFFFFFFF7F52
:100410001F0F07030100000038C40300001E7FFF08
:10042000E1800040201010080402000810214284DE
:1004300004F80000C13E00000000000000000000C1
:1004400000000010180C0E063F2120203060C00074
:1004500000000F08181000000083871F1F0C07C042
:100460007018080818B8F000000000000003070723
:100470000703C040E00000070404643C0C000000D7
:10048000000000000000000202F83805030100002F
:1004900000000000808080000001010102020203D0
:1004A00007070E30404182048880402020100884D5
:1004B000423108040300000000000000060C183060
:1004C00020604060C08000000000000000000000CC
:1004D00000303E12131111111111111B0E00000FEB
:1004E0001810180C07E1E070000100100000000077
:1004F0000000000203000000000366EC1818000072
:1005000000000000000000003CC3000080808080EC
:1005100080804F49505050492F20202040408080FB
:1005200000008080404020111008080404020100EF
:1005300000000000000000000000000000000004B7
:100540001C38F0C0800302020604040000002030C2
:10055000181C1416121331216342663C000000E09F
:1005600038080C1830C0BC38380008000001000002
:10057000808000041C180000008692935070600078
:1005800000000000000000000001E1190404020165
:10059000010000000000000000000000000000005A
:1005A0000101000000000000000000000002020243
:1005B000020604083860404000000000000000000F
:1005C00000000003070F1E1C3C3870E0E0E0C0C0D4
:1005D000C0C0E0E07078383C3E1E306040404021B2
:1005E000236343434363E1E0E0C040808080828234
:1005F00083F0F8F8F8F8F0E0930F00000000000036
:100600000000000000080B000202020100090400C3
:10061000000102020000052400100105240101016F
:10062000042402060524060001070581031000408A
:1006300009040100020A0000000705020240000050
:10064000070583024000000403090412010002EFC1
:10065000020140412336800001010203014172641E
:1006600075696E6F204C4C430041726475626F79FE
:10067000000808FFFFFCFC3333FFFF0808F3F3CC4E
:10068000CC3333CFCF0808C3C34C0C3030C3C308BE
:1006900008C3C3C10C0C00C3C30808C3C3000000D7
:1006A00000C3C3140014006400140028001400C820
:1006B0000014002C01140032001400630014001810
:1006C000011400C70014001801140000804C657666
:1006D000656C200000000000003E5B4F5B3E3E6BFF
:1006E0004F6B3E1C3E7C3E1C183C7E3C181C577DCC
:1006F000571C1C5E7F5E1C00183C1800FFE7C3E718
:10070000FF0018241800FFE7DBE7FF30483A060E29
:100710002629792926407F050507407F05253F5A70
:100720003CE73C5A7F3E1C1C08081C1C3E7F1422E0
:100730007F22145F5F005F5F06097F017F0066898B
:10074000956A606060606094A2FFA29408047E04D1
:100750000810207E201008082A1C08081C2A0808F7
:100760001E101010100C1E0C1E0C30383E383006B7
:100770000E3E0E06000000000000005F00000007B3
:10078000000700147F147F14242A7F2A12231308E1
:10079000646236495620500008070300001C2241BD
:1007A000000041221C002A1C7F1C2A08083E080861
:1007B0000080703000080808080800006060002011
:1007C000100804023E5149453E00427F40007249F4
:1007D0004949462141494D331814127F1027454598
:1007E00045393C4A494931412111090736494949AE
:1007F00036464949291E000014000000403400001C
:100800000008142241141414141400412214080284
:10081000015909063E415D594E7C1211127C7F49F7
:100820004949363E414141227F4141413E7F49494C
:1008300049417F090909013E414151737F08080878
:100840007F00417F41002040413F017F0814224149
:100850007F404040407F021C027F7F0408107F3EA3
:100860004141413E7F090909063E4151215E7F0910
:10087000192946264949493203017F01033F404077
:10088000403F1F2040201F3F4038403F6314081462
:100890006303047804036159494D43007F4141419A
:1008A0000204081020004141417F0402010204407B
:1008B00040404040000307080020545478407F28FF
:1008C0004444383844444428384444287F385454F5
:1008D000541800087E090218A4A49C787F08040418
:1008E0007800447D40002040403D007F10284400B7
:1008F00000417F40007C047804787C080404783848
:1009000044444438FC1824241818242418FC7C0877
:10091000040408485454542404043F44243C4040F4
:10092000207C1C2040201C3C4030403C44281028A7
:10093000444C9090907C4464544C440008364100F0
:100940000000770000004136080002010204023C6A
:100950002623263C1EA1A161123A4040207A385439
:1009600054555921555579412154547841215554B4
:10097000784020545579400C1E5272123955555505
:1009800059395454545939555454580000457C41F0
:100990000002457D420001457C40F0292429F0F009
:1009A000282528F07C545545002054547C547C0A5A
:1009B000097F4932494949323248484832324A4827
:1009C00048303A4141217A3A42402078009DA0A027
:1009D0007D39444444393D4040403D3C24FF24247B
:1009E000487E4943662B2FFC2F2BFF0929F620C098
:1009F000887E090320545479410000447D413048E9
:100A0000484A32384040227A007A0A0A727D0D192B
:100A1000317D2629292F28262929292630484D408D
:100A200020380808080808080808382F10C8ACBA89
:100A30002F102834FA00007B000008142A14222208
:100A4000142A14089500220095AA005500AAAA5558
:100A5000AA55AA000000FF00101010FF0014141483
:100A6000FF001010FF00FF1010F010F0141414FC21
:100A7000001414F700FF0000FF00FF1414F404FC3E
:100A8000141417101F10101F101F1414141F00101F
:100A90001010F0000000001F101010101F10101098
:100AA00010F010000000FF101010101010101010A7
:100AB000FF10000000FF140000FF00FF00001F10E7
:100AC000170000FC04F414141710171414F404F4A1
:100AD0000000FF00F714141414141414F700F71492
:100AE0001414171410101F101F141414F4141010E1
:100AF000F010F000001F101F0000001F1400000085
:100B0000FC140000F010F01010FF10FF141414FF7C
:100B1000141010101F00000000F010FFFFFFFFFF77
:100B2000F0F0F0F0F0FFFFFF0000000000FFFF0F0B
:100B30000F0F0F0F38444438447C2A2A3E147E029B
:100B4000020606027E027E02635549416338444430
:100B50003C04407E201E2006027E020299A5E7A5E5
:100B6000991C2A492A1C4C7201724C304A4D4D3056
:100B70003048784830BC625A463D3E494949007E7B
:100B80000101017E2A2A2A2A2A44445F4444405112
:100B90004A444040444A51400000FF0103E080FFC6
:100BA000000008086B6B083612362436060F090F52
:100BB00006000018180000001010003040FF01016E
:100BC000001F01011E00191D1712003C3C3C3C0097
:100BD00000000000E21DDC1D11241FBECFEFDAE093
:100BE000DEBFCDBF11E0A0E0B1E0E6E0F3E402C07B
:100BF00005900D92A636B107D9F727E0A6E6B1E039
:100C000001C01D92AE31B207E1F715E0CBEED5E0A1
:100C100004C02197FE010E945B1FCA3ED107C9F79D
:100C20000E94D6170C9476210C9400002F923F92CC
:100C30004F925F926F927F928F929F92AF92BF92EC
:100C4000CF92DF92EF92FF920F931F93CF93DF9398
:100C500081EC80937C0085B1806F85B984B1877EFB
:100C600084B984B1876E84B95E9A5F988AB1806DC9
:100C70008AB9769A6E9881B3806F81BB899880B368
:100C80008D7080BB80E58CBD81E08DBD85E090E0FE
:100C90000E94AA105F9A85E090E00E94AA105E98D8
:100CA0005C98ECEEF2E08DE08E0F94919EBD00001A
:100CB0000DB407FEFDCF31968E13F7CF5C9A81E815
:100CC000809364008091650081608093650087EB6C
:100CD00096E00E94CC100E94AF1087FF1FC085EAEB
:100CE0000E94B7102E982F982D98809164008062F2
:100CF0008093640081E083BF889513BEFCCF2D985C
:100D00000E94AF108478843871F00E94AF10847113
:100D1000843131F188EC90E00E94AA100E94AF105B
:100D200082FDEDCF3AC00E94A81088EC90E00E94AE
:100D3000AA102F9882E090E00E94971E8F3F29F022
:100D40006FEF82E090E00E949F1E84EF91E00E948E
:100D5000AA102F9A0E94AF1084788438D9F3D5CF87
:100D60000E94A81088EC90E00E94AA102E9882E0C1
:100D700090E00E94971E882329F060E082E090E0D6
:100D80000E949F1E84EF91E00E94AA102E9A0E945A
:100D9000AF1084718431D9F3BDCF0E94A81082E0D6
:100DA00090E00E94971E882319F00E94C41002C090
:100DB0000E94BF1081E090E00E94CA1081FF42C0F3
:100DC00082FB112710F982FD2E98C0EFDFEF0E9401
:100DD000AF1086FF04C02E9A2F9A2D9A33C011238C
:100DE00029F0C430D10511F42E9A2F9881E00E9489
:100DF000961400E128E54CE352E0BE0184E190E066
:100E00000E94C61487EB96E00E94CC108FE090E021
:100E10000E94AA102196C931D105C9F6112311F0FB
:100E20002F9A2D9880E991E00E94AA100E94A810A4
:100E3000E091B706F091B8060190F081E02D87EBC4
:100E400096E009950E94D81580E18093BE068091B6
:100E5000AC069091AD06892B61F06CE471E0809155
:100E6000A8069091A9060E946621892B11F40E9480
:100E7000C41068E270E070936D0160936C014AE009
:100E800050E050936F0140936E018AE5C82ED12C3B
:100E9000D0927101C092700150937301409372011E
:100EA00098E3892E912C909275018092740109E14A
:100EB00010E01093770100937601AAE4B0E0B093BC
:100EC0007901A093780110937B0100937A0181E46A
:100ED00090E090938101809380012AE130E030938B
:100EE000830120938201909385018093840124E102
:100EF00030E030938701209386019093890180939D
:100F000088012EE030E030938B0120938A0190938A
:100F10008D0180938C0150938F0140938E019093AB
:100F20007D0180937C0150937F0140937E01D0929C
:100F30009101C09290015093930140939201E8E790
:100F4000F0E0F0939501E093940120E230E03093DB
:100F5000970120939601B0939901A0939801109363
:100F60009B0100939A01C0E52C2E312C30929D01FB
:100F700020929C0130939F0120939E01B093A50184
:100F8000A093A401CDE1D0E0D093A701C093A60126
:100F9000D092A901C092A8011093AB010093AA01BD
:100FA000D4E64D2E512C5092AD014092AC01C7E1D8
:100FB0006C2E712C7092AF016092AE01DAE6AD2E0C
:100FC000B12CB092B101A092B0017092B3016092C5
:100FD000B201B092A101A092A0017092A30160920F
:100FE000A201F093B501E093B4013093B7012093CF
:100FF000B601D092B901C092B801E6E3F0E0F093F7
:10100000BB01E093BA013092BD012092BC01309344
:10101000BF012093BE01B093C101A093C001C7E2FC
:10102000EC2EF12CF092C301E092C201B093C90101
:10103000A093C801C3E2D0E0D093CB01C093CA0112
:10104000C7E5D0E0D093CD01C093CC017093CF0120
:101050006093CE015092D1014092D001C9E2D0E01C
:10106000D093D301C093D201B092D501A092D40104
:10107000CAE2D0E0D093D701C093D601B092C501A7
:10108000A092C401D093C701C093C601D092D901E8
:10109000C092D801F093DB01E093DA017093DD0197
:1010A0006093DC01F093DF01E093DE01B093E10196
:1010B000A093E001F092E301E092E2019092E50159
:1010C0008092E401F092E701E092E6019093ED0155
:1010D0008093EC01A6E2B0E0B093EF01A093EE01A3
:1010E0009093F1018093F001ACE2B0E0B093F30192
:1010F000A093F2019093F5018093F401A2E3B0E094
:10110000B093F701A093F6019093F9018093F80151
:10111000F093FB01E093FA019093E9018093E801D9
:10112000F093EB01E093EA017093FD016093FC0101
:10113000F093FF01E093FE015093010240930002FF
:1011400030930302209302029092050280920402DF
:10115000F0920702E0920602B0930902A0930802FF
:1011600030930B0220930A02E7E3F0E0F0931102C0
:10117000E093100284E290E09093130280931202B5
:101180007093150260931402F0921702E092160217
:101190008EE1E82EF12CF0921902E0921802709381
:1011A0001B0260931A0288E190E090931D028093E5
:1011B0001C02D0931F02C0931E0290930D028093D5
:1011C0000C02D0930F02C0930E0250932102409361
:1011D0002002309323022093220270932502609311
:1011E00024025093270240932602B0932902A09331
:1011F000280230932B0220932A0290922D02809293
:101200002C0210932F0200932E02F0933502E093EC
:1012100034022DE130E03093370220933602D09330
:101220003902C09338022AE130E030933B02209328
:101230003A02F0923D02E0923C0270923F026092CC
:101240003E02909341028093400226E130E03093C9
:1012500043022093420290933102809330023093F4
:101260003302209332021092440210926B011092CA
:101270006A0182E08093020110926D0210926C026A
:1012800083E08093030181E08093100110926B0250
:1012900010926A02309201012092000110926902BC
:1012A0000E94C51500E320E845E053E060E070E0EF
:1012B00080E090E00E94C61400E310E01093C306A3
:1012C0000093C206D093C506C093C4068FEF92E088
:1012D0000E94A5141093C3060093C20684E390E015
:1012E0009093C5068093C40689EF92E00E94A514EE
:1012F00087EB96E00E94CC1060ED77E080E090E014
:101300000E94FA0E10926F0210926E02DF91CF913E
:101310001F910F91FF90EF90DF90CF90BF90AF9013
:101320009F908F907F906F905F904F903F902F9005
:101330000895FC0180917B02811103C08FEF9FEF24
:1013400008959FB7F89482E08093E9002091F2001D
:1013500030E01216130614F421E030E021153105B7
:1013600059F0289884E680937A028091F100808376
:101370008091F200882319F09FBFC90108958BE680
:101380008093E800F9CF2FB7F89483E08093E900C9
:101390009091E800892F807295FF04C09091F2002F
:1013A00080E4891B2FBF08958091820281110DC0B6
:1013B00082E080937E0284E080937F02109281021B
:1013C0001092800281E0809382028EE792E008957D
:1013D000CF93DF931F92CDB7DEB76983DC01ED9128
:1013E000FC910280F381E02D41E050E0BE016F5F8F
:1013F0007F4F09950F90DF91CF91089583E08093FF
:10140000E9008091F200882319F08AE38093E800D4
:1014100008950E94C30990E00895CF93DF931F922F
:10142000CDB7DEB7FC018485958597FD05C02FEF0C
:101430003FEF358724870BC0CE0101960E949909A2
:10144000019719F4898190E002C08FEF9FEF0F9010
:10145000DF91CF9108950F931F93CF93DF931F9246
:10146000CDB7DEB78C01FC018485958597FF0EC052
:10147000CE0101960E949909019719F4298130E063
:1014800002C02FEF3FEFF80135872487F8018485EC
:1014900095850F90DF91CF911F910F910895FC01D9
:1014A0008485958597FD0BC09FB7F89482E0809363
:1014B000E9008091F2009FBF90E0019608959FB7E8
:1014C000F89482E08093E9008091F2009FBF90E061
:1014D00008958F929F92AF92BF92CF92DF92EF9238
:1014E000FF920F931F93CF93DF935C016B017A01FF
:1014F00080910F01882309F45BC080917B028823CF
:1015000009F456C08091790280FF05C08091E00007
:1015100082608093E000E70110E00AEF83E0882E0C
:101520009AE3992E2097D9F10E94C30981110AC02C
:10153000015009F43DC061E070E080E090E00E945D
:10154000FA0EF0CF282F30E0C217D3070CF48C2FFF
:101550004FB7F8948092E9009091E80095FF1DC084
:10156000282F30E0C21BD30BF601982F915020F0AA
:1015700081918093F100FACFC20ED31E112319F08E
:101580009092E80009C08091E80085FD06C0909225
:10159000E80011E0209709F010E04FBFC3CF111110
:1015A000C3CF5D9884E680937D021E141F0444F02F
:1015B00081E090E0F5019383828380E090E001C0B8
:1015C000C701DF91CF911F910F91FF90EF90DF90B6
:1015D000CF90BF90AF909F908F900895DF92EF9241
:1015E000FF920F931F93CF93DF93D82E8A017B0135
:1015F000E40EF51EEB01CE15DF0571F0D7FE03C03A
:10160000FE01849101C088810E949B17219681115F
:10161000F2CF8FEF9FEF01C0C801DF91CF911F91F3
:101620000F91FF90EF90DF9008950F931F93CF934A
:10163000DF931F92CDB7DEB782E0898342E450E0AA
:1016400065E076E080E80E94EE0A0E94D409DC01A1
:1016500012960D911C9113970115110569F0D8018F
:10166000ED91FC910280F381E02DBE016F5F7F4F11
:10167000C801099597FF07C089810F90DF91CF912D
:101680001F910F910895F80100851185E5CFCF9244
:10169000DF92EF92FF92CF93DF936C01990FEE08E8
:1016A000FF08F7FE1FC0E091B306F091B406019069
:1016B000F081E02D6DE283EB96E00995EC01662761
:1016C0007727CB016C197D098E099F094AE00E949A
:1016D0004A178C0F9D1FDF91CF91FF90EF90DF9005
:1016E000CF9008954AE0C701B601DF91CF91FF90F6
:1016F000EF90DF90CF900C944A171F920F920FB685
:101700000F9211248F939F938091E1009091E100BB
:10171000937F9093E10083FF0FC01092E90091E066
:101720009093EB001092EC0092E39093ED001092F6
:101730007B0298E09093F00082FF20C093E09093AA
:10174000E9009091F200992319F09AE39093E80050
:1017500090917D02992339F090917D029150909360
:101760007D02992389F190917A02992339F0909121
:101770007A02915090937A02992341F184FF10C02C
:101780008091E2008E7E81608093E2008091E10092
:101790008F7E8093E100809179028E7E806111C0FE
:1017A00080FF16C08091E2008E7E80618093E2000F
:1017B0008091E1008E7E8093E100809179028E7E9F
:1017C00081608093790204C05D9ACDCF289AD6CFEC
:1017D0009F918F910F900FBE0F901F9018951F92A1
:1017E0000F920FB60F921124CF92DF92EF92FF92D9
:1017F0000F931F932F933F934F935F936F937F9319
:101800008F939F93AF93BF93EF93FF93CF93DF9308
:10181000CDB7DEB76C97DEBFCDBF1092E9008091E7
:10182000E80083FFFAC168E0CE0145960E94C9171F
:1018300082EF8093E8008D8987FF05C09091E800D2
:1018400090FFFCCF03C09EEF9093E800982F907616
:1018500009F0C6C09E892F89188D91110CC080385F
:1018600029F4809178028093F10002C01092F10077
:101870001092F10049C1422F50E0512B913051F4A8
:10188000811142C14130510509F03EC18091780279
:101890008D7F0BC0933061F4811136C14130510509
:1018A00009F032C1809178028260809378022CC165
:1018B000953041F48091E80080FFFCCF20682093B0
:1018C000E30022C1963009F05FC0EB8CFC8C1092D3
:1018D000E9001092770210927602123091F5109280
:1018E0007502109274020E94150B99E0BE016F5FA1
:1018F0007F4FDB01E92F1D92EA95E9F799831A835F
:1019000091E09E8390EA98879AEF998720917602DA
:1019100030917702275F3F4F3C832B838D8310925A
:10192000E9001092770210927602F0927502E0922E
:10193000740249E050E080E00E94EE0A0E94150B1C
:10194000E3C0F0927502E09274020E94D409DC01B7
:101950001296ED90FC901397E114F10409F4C1C0C4
:10196000D701ED91FC910480F581E02DBE016B5E05
:101970007F4FC7010995009719F00CF0C5C0C8C08A
:10198000F701E084F184E8CF973009F4C1C09830C2
:1019900021F481E08093F100B7C0993009F0B4C020
:1019A000837009F0B5C0ECE1F1E081E021E036E3BD
:1019B0009081992361F08093E9002093EB0091914D
:1019C0009093EC003093ED008F5F873089F78EE7BE
:1019D0008093EA001092EA008F8980937B0294C082
:1019E0008B8D9C8D1092E9001092770210927602F6
:1019F0009093750280937402898D811159C08E89EC
:101A00009D89913A59F4813209F082C047E050E053
:101A100068E071E080E00E94EE0A76C0913209F041
:101A200077C0833289F4888D90E0982F88272F899A
:101A3000822BA0E0B0E08093040190930501A09375
:101A40000601B093070160C0803269F48091E8001C
:101A500082FFFCCF67E088E091E00E94C9178BEF1E
:101A60008093E80051C0823209F04EC08F89809384
:101A70000F01EEEFFFE7859194918B3F9C4D19F498
:101A8000EEEFFAE002C0E0E0F8E08091080190910A
:101A90000901A0910A01B0910B01803B9440A1057E
:101AA000B10509F079C080910F0180FF95C074C025
:101AB0000E94D409FC01028113810115110541F135
:101AC000D801ED91FC910190F081E02DBE016B5E9B
:101AD0007F4FC8010995811117C0F8010085118554
:101AE000ECCF113009F44EC0133091F48F89882364
:101AF00009F445C0823081F440E867E089E696E069
:101B00000E945E1D882321F08EEF8093E80085C03F
:101B100081E28093EB0081C0813029F440E86BE0E2
:101B20008DE596E0EDCF833099F70E94D409DC0172
:101B30001296ED90FC9013978E010F5F1F4F680176
:101B4000E114F10479F0D701ED91FC910680F78161
:101B5000E02DB801C7010995080F111DF701E084B8
:101B6000F184EECFD8011C92F60101900020E9F734
:101B70003197BF016C197D0940E0C601C1CF67E410
:101B800076E002C06BE476E06115710509F2FB01B5
:101B9000449150E080E83FCF80819181873797471B
:101BA00009F0B2CFA89580916000886180936000B1
:101BB00080917C0280936000EE3FBAE0FB0739F031
:101BC0008091FE0A9091FF0A918380839DCF1092AD
:101BD000FF0A1092FE0A98CFEE3F8AE0F80751F014
:101BE000808191818737A7E79A0721F09093FF0AB8
:101BF0008093FE0A87E797E7918380838091600056
:101C000080937C029BE088E10FB6F894A8958093BE
:101C100060000FBE9093600077CF6C960FB6F8947B
:101C2000DEBF0FBECDBFDF91CF91FF91EF91BF918E
:101C3000AF919F918F917F916F915F914F913F9164
:101C40002F911F910F91FF90EF90DF90CF900F9009
:101C50000FBE0F901F901895CF92DF92EF92FF92D8
:101C60000F931F93CF93DF936C017A018B01C0E038
:101C7000D0E0CE15DF0589F0D8016D918D01D60138
:101C8000ED91FC910190F081E02DC6010995892B21
:101C900011F47E0102C02196ECCFC701DF91CF91F4
:101CA0001F910F91FF90EF90DF90CF90089580915A
:101CB0004902E0914702F0914802882349F0CF01A0
:101CC00002969093480280934702859194910895DB
:101CD000CF010296909348028093470280819181C0
:101CE000089580914A0208950895089580E090E053
:101CF00008950E9458210F931F93CF93DF93EC0117
:101D000088819981009729F02A813B81261737071E
:101D100088F48B016F5F7F4F0E948E20009761F0E7
:101D2000998388831B830A832C813D81232B11F4A3
:101D3000FC01108281E001C080E0DF91CF911F9112
:101D40000F910895CF93DF93EC01888199810097DB
:101D500011F00E94F61F198218821D821C821B82BC
:101D60001A82DF91CF910895EF92FF920F931F9304
:101D7000CF93DF93EC017B018A01BA010E947B0EB5
:101D8000811104C0CE010E94A20E07C01D830C83E6
:101D9000B701888199810E946F21CE01DF91CF9197
:101DA0001F910F91FF90EF9008953FB7F8948091A5
:101DB000940290919502A0919602B091970226B557
:101DC000A89B05C02F3F19F00196A11DB11D3FBF73
:101DD000BA2FA92F982F8827820F911DA11DB11D01
:101DE000BC01CD0142E0660F771F881F991F4A95FD
:101DF000D1F708958F929F92AF92BF92CF92DF92C8
:101E0000EF92FF926B017C010E94D50E4B015C01A9
:101E1000C114D104E104F104F1F00E94D50EDC01FB
:101E2000CB0188199909AA09BB09883E9340A105ED
:101E3000B10570F321E0C21AD108E108F10888EE7B
:101E4000880E83E0981EA11CB11CC114D104E104CA
:101E5000F10419F7DDCFFF90EF90DF90CF90BF90A6
:101E6000AF909F908F9008951F920F920FB60F9290
:101E700011242F933F938F939F93AF93BF938091A0
:101E8000660190916701A0916801B091690130915C
:101E9000930223E0230F2D3720F40196A11DB11DDD
:101EA00005C026E8230F0296A11DB11D20939302C1
:101EB0008093660190936701A0936801B0936901D4
:101EC0008091940290919502A0919602B091970210
:101ED0000196A11DB11D8093940290939502A09349
:101EE0009602B0939702BF91AF919F918F913F91CE
:101EF0002F910F900FBE0F901F901895CF92DF92E9
:101F0000EF92FF920F931F93CF93DF930E94570E90
:101F1000811520E8920761F4809171008D7F809394
:101F20007100109291004698479810928C028BC0D5
:101F300021E020938C02813020E8920751F48091B7
:101F400045029091460290934802809347020E9476
:101F5000570E97FD05C020918B02222309F43FC044
:101F600020918A0221113BC021E020938D02EC01D7
:101F7000DF77209769F481E080938E0246983FE9ED
:101F8000C32E3FE0D32EE12CF12CCAEFD0E014C0D9
:101F90008E0120E030E060E472E48FE090E0A9017F
:101FA00098010E94AD1E69017A0181E0C81AD1082A
:101FB000E108F10810928E02E091A606F091A706C2
:101FC0000995811103C081E080938E0280918D027A
:101FD0008823B9F180918E02811133C003C0109221
:101FE0008D02C5CF46992DC0479A0E94570E009783
:101FF00071F09C01DE010E94381FDC01CB0129E059
:10200000B595A795979587952A95D1F703C08FEF3A
:102010009FEFDC01109290002AE020939100D09273
:102020009900C092980080938F0290939002A093A1
:102030009102B0939202809171008260809371004E
:1020400002C04798D2CFDF91CF911F910F91FF909F
:10205000EF90DF90CF9008951F920F920FB60F92DE
:1020600011242F933F934F935F936F937F938F939D
:102070009F93AF93BF93EF93FF9380918F029091C3
:102080009002A0919102B0919202892B8A2B8B2B06
:1020900081F180918E0281110BC098B180E4892773
:1020A00088B980918D02882319F088B1805888B949
:1020B00080918F0290919002A0919102B091920232
:1020C000181619061A061B06B4F480918F02909117
:1020D0009002A0919102B09192020197A109B109D9
:1020E00080938F0290939002A0939102B0939202FA
:1020F00002C00E947E0FFF91EF91BF91AF919F911F
:102100008F917F916F915F914F913F912F910F90A0
:102110000FBE0F901F9018959C01E1E7F0E09081B1
:102120009D7F908310924902E8E9F6E0F09348021F
:10213000E0934702F0934602E09345023183208307
:102140007383628380E090E8958384830C947E0F90
:102150002D9A0895BC0180E090E00C94FA0E8FB1A6
:102160008095807F669B88601C9B846008955C9846
:102170008EBD00000DB407FEFDCF5C9A089510924D
:102180004A023E983F9808953E9A3F9A81E0809394
:102190004A0208950C94971E80E00C9496141092B5
:1021A00069020E94C51584E190E09093C306809374
:1021B000C2068AE090E09093C5068093C40682E050
:1021C0008093C8068DEC96E00E94A51480911001C2
:1021D000082E000C990B0E94470B81E08093C806E3
:1021E0008DE290E09093C3068093C20688E290E06F
:1021F0009093C5068093C40647E050E06EE571E019
:1022000083EB96E00E942C0E87EB96E00E94CC10A8
:102210000E94D8150E94AF1082FFFCCF0C94D815F5
:1022200080389105B8F460347105A0F490E121E0A4
:1022300061FD24E060FD220F62FD2295687F969F7C
:10224000D0011124A80FA856BD4F8C91822B40FFBE
:1022500082278C9308952F923F924F925F926F92B4
:102260007F928F929F92AF92BF92CF92DF92EF9226
:10227000FF920F931F93CF93DF93CDB7DEB72797CE
:102280000FB6F894DEBF0FBECDBFFC016A3069F413
:1022900025898189928938E0239F800D911D112421
:1022A000928B818B108A17869EC06D3009F49BC07B
:1022B0009F838E8335882489298333893A83618873
:1022C0007288E784F08880E8E816F104C4F0AE81F3
:1022D000BF8155962C915597422F50E01F968D91B6
:1022E0009C915097B6E02B9F800D911D1124EE819B
:1022F000FF81908B8787268921115FC074C0F0E42D
:102300006F16710424F7C70125E0329E800D911DE0
:10231000112418161906DCF6432C512CC30138E0A1
:10232000339E800D911D11241816190684F685E040
:10233000689F800111240C52194F20E0F80124906D
:10234000253009F4212C430158E020FC02C03981DA
:1023500001C03A8131110BC0F9818A81F81307C09D
:1023600026945150840C951C5111EFCF1DC067016C
:102370008C2D8E198315A0F754018A2D8819831589
:1023800078F4432FB501C6012C833B835D830E9403
:1023900010119FEFA91AB90A5D813B812C81EDCF05
:1023A000AFEFCA1ADA0AE4CF2F5FE40CF51C0F5F17
:1023B0001F4F263009F0C2CF8ACF6AEF6403900125
:1023C000659F300D112420583F4F281739075CF4C2
:1023D000AE81BF81ED91FC9111970190F081E02DCC
:1023E0006AE0CD01099581E090E027960FB6F89458
:1023F000DEBF0FBECDBFDF91CF911F910F91FF9038
:10240000EF90DF90CF90BF90AF909F908F907F9094
:102410006F905F904F903F902F9008952F923F9232
:102420004F925F926F927F928F929F92AF92BF92E4
:10243000CF92DF92EF92FF920F931F93CF93DF9390
:10244000512C03EA16E052E0452E6EE1E62EF12C07
:1024500078E2C72ED12CEEE02E2EF3E03F2EA2E341
:10246000AA2EB12CBCE38B2E912C809169025816B8
:1024700008F086C1652C712CE301CC0FDD1FC55B14
:10248000DD4F988180910201981366C099818091F7
:102490006A01981361C080916B0181115FC05CC0BB
:1024A00080916C0290916D020A9690936D028093D8
:1024B0006C0220916A0230916B022431310534F4B0
:1024C0002E5F3F4F30936B0220936A028C32914013
:1024D00041F44092100190920101809200010E940B
:1024E000CF1080916C0290916D02843F914059F41D
:1024F00030921001B0920101A09200018FE0809310
:10250000BE060E94CF1080916C0290916D028032C5
:10251000934059F484E080931001D0920101C0925D
:1025200000012092BE060E94CF1080916C02909113
:102530006D02803B944061F445E040931001F092BD
:102540000101E09200018CE08093BE060E94CF1052
:1025500010926B0140920201539487CF80917100D9
:102560008D7F8093710021E02093490210934802EF
:102570000093470210934602009345020E947E0F8B
:1025800020916A013091020149E02403C001112425
:10259000830F911D37FD9A95FC01EE0FFF1FEE0F83
:1025A000FF1FE459FE4F6689778964507109880FCF
:1025B000991F880F991FFC01E058FE4F808191817F
:1025C00049E956E004970E94641687EB96E00E9462
:1025D000CC1064E170E080E090E00E94FA0E20915F
:1025E0006A013091020149E02403C0011124830FE4
:1025F000911D37FD9A95FC01EE0FFF1FEE0FFF1F97
:10260000E459FE4F6689778964507109880F991FD4
:10261000880F991FFC01E058FE4F808191814FE89F
:1026200056E004970E94641687EB96E00E94CC1057
:1026300064E170E080E090E00E94FA0E20916A016F
:102640003091020149E02403C0011124830F911D40
:1026500037FD9A95FC01EE0FFF1FEE0FFF1FE459A7
:10266000FE4F6689778964507109880F991F880F1A
:10267000991FFC01E058FE4F8081918145E856E0AA
:1026800004970E94641687EB96E00E94CC1064E1E8
:1026900070E080E090E00E94FA0E20916A01309193
:1026A000020149E02403C0011124830F911D37FD6D
:1026B0009A95FC01EE0FFF1FEE0FFF1FE459FE4F2E
:1026C0006689778964507109880F991F880F991F4F
:1026D000FC01E058FE4F808191814BE756E0049762
:1026E0000E94641687EB96E00E94CC1064E170E0D3
:1026F00080E090E00E94FA0E20916A013091020180
:1027000049E02403C0011124830F911D37FD9A95E0
:10271000FC01EE0FFF1FEE0FFF1FE459FE4F66890D
:10272000778964507109880F991F880F991FFC01E0
:10273000E058FE4F8081918141E756E004970E9466
:10274000641687EB96E00E94CC1064E170E080E0B4
:1027500090E00E94FA0E80916902581608F0A0CE0F
:1027600081508093690290E0681679060CF098CE4B
:102770002FEF621A720A2A813B8129933993F4CF91
:10278000DF91CF911F910F91FF90EF90DF90CF904D
:10279000BF90AF909F908F907F906F905F904F9081
:1027A0003F902F9008952091BD06282329F4909101
:1027B000BC06982381E009F480E00895EF92FF922F
:1027C0000F931F93CF93DF937C018B01040F111D97
:1027D000EB0177FF0CC0C0E0D0E009C0C217D307FF
:1027E0006CF441E0BE01C7010E94101121969801CE
:1027F000013411059CF320E430E0F0CFDF91CF915C
:102800001F910F91FF90EF9008952F923F924F925A
:102810005F926F927F928F929F92AF92BF92CF9270
:10282000DF92EF92FF920F931F93CF93DF9300D02D
:102830001F92CDB7DEB75C014B01242F30E03B8304
:102840002A83440F4F5F621B730B0E94DE1301E06B
:1028500010E02A813B81021B130B19013194219452
:102860003108220C331CE12CF12CCC24C394D12C44
:102870002A813B81E216F3060CF042C017FD0BC023
:102880002A813B81215031093B832A8332E0230E88
:10289000311C020D131D8FEFE81AF80A92E0C90EE1
:1028A000D11C0C0D1D1D2A81220F2F5F422F2401E8
:1028B0008A819B81481A590AB201C7018A0D9B1D62
:1028C00029830E94DE1334016E187F084C2DB3015A
:1028D0008A819B818A0D9B1D0E94DE132981422FD4
:1028E000B201C5018E199F090E94DE134C2DB30160
:1028F000C5012A813B81821B930B0E94DE13B8CF56
:102900000F900F900F90DF91CF911F910F91FF903B
:10291000EF90DF90CF90BF90AF909F908F907F907F
:102920006F905F904F903F902F900895E8E9F2E00C
:10293000A0E0B8E000800EBC8111012C1197A0FD31
:10294000FDCF0192B9F70DB408950F931F93CF9364
:10295000DF938C01C0E0D0E0F801EC0FFD1F649123
:10296000662371F0E091B306F091B4060190F08116
:10297000E02D83EB96E00995892B11F02196ECCFA1
:10298000CE01DF91CF911F910F9108952F923F9229
:102990004F925F926F927F928F929F92AF92BF926F
:1029A000CF92DF92EF92FF920F931F93CF93DF931B
:1029B000CDB7DEB728970FB6F894DEBF0FBECDBFF8
:1029C0005A01822E912C9C01280D391D37FDC4C05F
:1029D000803891050CF0C0C09B01200F311D37FDE0
:1029E000BBC0603471050CF0B7C0AB0177FF04C009
:1029F00044275527461B570B477055279B0177FFE8
:102A000002C0295F3F4FE3E035952795EA95E1F74E
:102A100077FF08C02150310968E070E0DB01A41B9A
:102A2000B50BAD01602F66956695669570E00770F1
:102A300011F06F5F7F4FDB01A20FB31FBA83A98331
:102A400039017694762C662477946794680E791E03
:102A5000E12CF12C00E010E02301B0E84B0E511CFA
:102A600068E070E0DB01A41BB50BBC83AB8369811C
:102A70007A812617370709F46FC02830310509F429
:102A80006BC02F3FBFEF3B070CF45BC0B201600F80
:102A9000711FDB01A856BD4FBE83AD83D801A60DC3
:102AA000B71DA856BD4F6C0160E070E06815790550
:102AB0000CF047C0E0E8CE16D10409F442C0D7FCC0
:102AC00034C02F3FFFEF3F0709F442C0FB01EE0D7A
:102AD000FF1DEA0DFB1DE491042E01C0EE0F0A94C8
:102AE000EAF73C90E329EC9341155105F1F02730CA
:102AF0003105D9F0FB01EE0DFF1DEA0DFB1DE49140
:102B00002E2E312CF1010B8002C0F595E7950A9429
:102B1000E2F7F887EF83ED81FE813080EF81F88561
:102B2000E3291F01ED81FE8120826F5F7F4FED81E0
:102B3000FE813196FE83ED83FFEFCF1ADF0A1196F7
:102B4000B5CF2F5F3F4F00581F4FE80CF91C8FCFB8
:102B50004115510579F6E9CF28960FB6F894DEBFF6
:102B60000FBECDBFDF91CF911F910F91FF90EF90DE
:102B7000DF90CF90BF90AF909F908F907F906F909D
:102B80005F904F903F902F90089580E0E8E9F2E049
:102B900081118FEF0024819381938193819303941A
:102BA000D1F7E3EBF6E0128A118A108A17860895AE
:102BB00082E390E00E94AA100E94AF108111F8CF2A
:102BC00008955F926F927F928F929F92AF92BF9281
:102BD000CF92DF92EF92FF920F931F93CF93DF93E9
:102BE000EC018B017A01A901461B570B57FF03C06B
:102BF000519541955109C7018C1B9D0B97FF03C04F
:102C0000919581959109552453948417950714F053
:102C1000512C0AC09E2D8F2D7901292F382F9C2FE2
:102C20008D2FE801092F182FEC16FD0654F4902F74
:102C3000812F8901292F382F9C2F8D2FE701E92E15
:102C4000F82E6701CC1ADD0A5901A01AB10AB7FEA5
:102C500003C0B194A194B1083601D7FE03C08FEF31
:102C6000681A780A759467940217130714F08FEFA7
:102C700001C081E0882E880F9908EC16FD06A4F0AB
:102C800041E0552019F0BE01C80102C0B801CE01D3
:102C90000E9410116A187B0877FE04C0080D191DE8
:102CA0006C0C7D1C2196E9CFDF91CF911F910F9184
:102CB000FF90EF90DF90CF90BF90AF909F908F905C
:102CC0007F906F905F9008954F925F927F928F9266
:102CD0009F92AF92BF92CF92DF92EF92FF920F93AB
:102CE0001F93CF93DF9300D000D0CDB7DEB7DC01C8
:102CF0004115510509F4BAC0FA01D49031963491C6
:102D00004D2C512C5C01A40CB51C1A141B040CF0A6
:102D1000ADC0803891050CF0A9C0CB01830F911D87
:102D2000181619060CF0A2C0603471050CF09EC094
:102D3000F62FF770EF2ECB0177FD079623E09595E0
:102D400087952A95E1F7F82F77FF04C0EE2011F060
:102D5000FFEFF80FB7FF05C0662777276A1B7B0BCD
:102D600002C060E070E000E8A016B10424F080E842
:102D7000F82EFA1A01C0FD2CF61AAF2E0F2E000CF9
:102D8000BB08FF3F1CF4CA2CC09401C0C12C91E0C9
:102D9000832F877009F490E0369536953695930F1A
:102DA000A90EB11C19E0A116B10414F098E09F1B04
:102DB0008C2D8F0F9D01082F10E80103200D311D70
:102DC0001124260F371F4E5F5F4FCD9C600D711D84
:102DD0001124460F571F61E070E00E2C02C0660FF1
:102DE000771F0A94E2F7EFEFE69FD001E79FB00D5F
:102DF0001124A095B095BC83AB837C809F0F89176D
:102E0000A9F1F901E856FD4F6F01A12CB12CAF14C7
:102E100038F5FA01EA0DFB1DE491E69F4001E79FBA
:102E2000900C11249A82898287FD07C0F6011081D7
:102E3000E12FEA238E2AF6018082EE2051F08730BE
:102E400044F4F601E058FF4F908097208A8098283C
:102E50009082FFEFAF1ABF0A0FEFC01AD00AD7CF88
:102E60008F5F440D551D20583F4FC9CF0F900F90D5
:102E70000F900F90DF91CF911F910F91FF90EF90E6
:102E8000DF90CF90BF90AF909F908F907F905F909A
:102E90004F9008958F929F92AF92BF920F931F937E
:102EA000CF93DF93CDB7DEB7A1970FB6F894DEBF0F
:102EB0000FBECDBF19A2423008F44AE08E010F5D6B
:102EC0001F4F842E912CA12CB12CA50194010E949E
:102ED000161FE62FB901CA0101501109EA3014F496
:102EE000E05D01C0E95CD801EC93232B242B252B5A
:102EF00061F70115110571F0F80101900020E9F763
:102F00003197AF01401B510BB80183EB96E00E9453
:102F10002C0E02C080E090E0A1960FB6F894DEBFC0
:102F20000FBECDBFDF91CF911F910F91BF90AF909A
:102F30009F908F9008954091760250917702209152
:102F400074023091750242175307B4F49091E8006F
:102F50009570E1F39091E80092FD19C08093F10023
:102F6000809176029091770201968F739927892B31
:102F700019F48EEF8093E8008091760290917702A9
:102F80000196909377028093760281E0089580E025
:102F90000895615030F02091F100FC0120830196EA
:102FA000F8CF289884E680937A020895CF93DF9330
:102FB00000D000D000D0CDB7DEB7789484B5826061
:102FC00084BD84B5816084BD85B5826085BD85B5CD
:102FD000816085BD80916E00816080936E0010924B
:102FE00081008091810082608093810080918100C6
:102FF0008160809381008091800081608093800057
:103000008091910082608093910080919100816015
:1030100080939100809190008160809390008091D6
:10302000C10084608093C1008091C1008260809360
:10303000C1008091C10081608093C1008091C30074
:1030400081608093C3008091C00082608093C00043
:103050008091C20081608093C20080917A00846078
:1030600080937A0080917A00826080937A008091C8
:103070007A00816080937A0080917A0080688093E2
:103080007A0010927B02109278021092790280915D
:10309000D70081608093D70080EA8093D80089B5FB
:1030A000806189BD89B5826089BD09B400FEFDCF0C
:1030B00061E070E080E090E00E94FA0E8091D8001C
:1030C0008F7C80618093D8008091E000807F809326
:1030D000E0008091E1008E7E8093E1008DE080939E
:1030E000E200559A209A0E9416060FEC12E00C5E40
:1030F00016E0212E312C412C512C8FB7F8944091A1
:1031000066015091670160916801709169018FBFFC
:103110008091BF06242F281B822F9091C0069923EF
:1031200029F02093C1061092C006F4C19091BE060A
:10313000291748F48F5F891708F0ECC181E083BF3D
:10314000889513BEE7C111E01093C0064093BF06F7
:103150008091BA069091BB0601969093BB0680932E
:10316000BA0680916E0290916F028130910509F448
:1031700001C11CF4892B71F1C9C18230910509F498
:103180002DC1039709F0C2C190E3E92EF12CF09212
:10319000C306E092C20680E290E09093C506809359
:1031A000C40682E991E00E94A514F092C306E09261
:1031B000C2068CE290E09093C5068093C4068AE82C
:1031C00091E00E94A51487EB96E00E94CC100E942B
:1031D000D81590C10E94C51581E392E00E94A51404
:1031E0001A8219821C821B821E821D824EE050E0D0
:1031F0006FE471E0CE0101960E94B40E8091AC069E
:103200009091AD06C090A806D090A906ED80FE80F2
:10321000C114D10409F486C10097A9F0E80EF91E83
:10322000B701CE0101960E947B0E882309F47AC172
:1032300029813A818D819E81B601820F931F0E9460
:103240006F21FE82ED824D815E8169817A8183EBFF
:1032500096E00E942C0E89819A810E94F61F87E2D7
:1032600092E00E94A51488E192E00E94A51488E0F3
:1032700092E00E94A5148BEF91E00E94A51489EEC4
:1032800091E00E94A51480917202909173020196C0
:10329000909373028093720249971CF487ED91E03A
:1032A00002C085ED91E00E94A51480917202909178
:1032B0007302839724F0109273021092720287EBCC
:1032C00096E00E94CC108091BC068093BD060E94BF
:1032D000AF108093BC0688E00E94D313882331F09E
:1032E00081E090E090936F0280936E0284E00E94F0
:1032F000D313882351F18091AC069091AD0668E418
:1033000071E0892B69F08091A8069091A9060E942E
:103310006621892B19F46CE471E002C068E471E065
:10332000FB0101900020E9F73197AF01461B570BD5
:1033300088EA96E00E94B40E80914A02882319F030
:103340000E94BF1002C00E94C4108091AC069091F0
:10335000AD06892B09F4DAC06CE471E08091A8060F
:103360009091A9060E946621892B09F0CFC00E9486
:10337000C410CCC00E94C51580916C0290916D0262
:103380000E94470B4BEC51E060E070E08EE690E06D
:103390000E94641688E790E09093C3068093C2066B
:1033A0001092C5061092C40680910301082E000CED
:1033B000990B0E94470B8091BC068093BD060E942A
:1033C000AF108093BC0680E80E94D3138111AFC078
:1033D00080E10E94D3138111AAC0ACC0809171001A
:1033E0008D7F809371001092490288E996E0909356
:1033F000480280934702909346028093450286E0FC
:1034000091E0909399068093980684EF91E09093D1
:103410009B0680939A0623E830E030939D06209324
:103420009C0690939F0680939E0681E290E0909385
:10343000A1068093A00688EE93E09093A306809364
:10344000A2060E947E0F20916C0230916D02809145
:10345000700290917102821793070CF4C901909346
:103460007102809370020E94C51588E090E09093ED
:10347000C3068093C2061092C5061092C40682E06D
:103480008093C80680EC91E00E94A51481E08093AF
:10349000C8061092C3061092C20688E190E090938D
:1034A000C5068093C40688EB91E00E94A514809124
:1034B0006C0290916D020E94470B8CEA91E00E9491
:1034C000A51480917002909171020E94470B89E9C6
:1034D00091E00E94A51487EB96E00E94CC100E9418
:1034E000D8150E94AF1082FFFCCF0E94D8150E9411
:1034F00016060CC00E94AF1082FFFCCF0E94D815A8
:1035000081E090E090936F0280936E0287EB96E0EB
:103510000E94CC1080E090E0892B09F4EECD0E944F
:103520000000EBCDCE0101960E94A20E8CCE83E06E
:1035300090E0E8CF84E00E94D313882339F0809193
:103540006A0290916B02449709F467C21091440299
:10355000123009F03FC247E151E069E270E089E6CC
:1035600090E008C0113041F44BE251E06EE070E0B1
:103570008AE690E00E946416BCE6EB2EB1E0FB2EDA
:10358000F701A680B780C480D58062807380808078
:1035900091809501A601B301C4010E94E115F701D4
:1035A0002685378544855585628573858085918517
:1035B0000E94E1152091B0063091B1064091AE060F
:1035C0005091AF06B301C4010E94E1152091B006ED
:1035D0003091B1064091AE065091AF06B501C601DB
:1035E0000E94E115F4E2EF0EF11C24E4E21622E061
:1035F000F20631F6EFECF2E0DF010A1721F08C91D0
:1036000081608D93FACF0E1721F0808188608193BD
:10361000FACF44E060E070E087E390E00E94DE13C0
:1036200044E060E070E08AE490E00E94DE13E09005
:103630006A02F0906B02E114F10431F480E20E941E
:10364000D313811115C01DC0A7E3CA2ED12CFF24AE
:1036500087E3E80EF11CCE14DF0484F744E060E059
:1036600070E0C6010E94DE133FEFC31AD30AF3CF06
:10367000115017FD03C01093440203C085E08093EE
:10368000440280E40E94D313882351F080914402C5
:103690008F5F86301CF48093440202C01092440273
:1036A00088E00E94D313882329F080916B0188233E
:1036B00009F4E6C1609100017091010177278091C2
:1036C000BA069091BB060E94471F892B69F00E94A1
:1036D0000E12809164008E7F8093640080917A0046
:1036E000806480937A005FC010E0809169021817AF
:1036F00070F7C12ED12CC601880F991FFC01E55B24
:10370000FD4F7F0180818F5F808384300CF449C03E
:1037100068EE73E081E290E00E948C108091B00628
:103720009091B10604972091AE063091AF062251D8
:1037300031093093C3062093C2069093C506809347
:10374000C4068EED90E00E94A51487EB96E00E94DF
:10375000CC1068EE73E080E090E00E94FA0E809159
:103760006902181770F08091030181508093030162
:10377000811117C082E090E090936F0280936E02F7
:1037800010C0815080936902F70190E0C816D906F5
:1037900054F72FEFC21AD20A228133812193319339
:1037A000F5CF1F5FA2CF80917A0086FDFCCFE0901D
:1037B0007800F09079000E94D50E6701E12CF12C81
:1037C0007601DD24CC246C0D7D1D8E1D9F1D209166
:1037D00064002160209364006115710581059105E5
:1037E00011F00E948E1EE0900001F090010147014F
:1037F000FF0CAA08BB0892E089169104A104B10449
:1038000084F00E94891EA5019401215031094109CB
:1038100051090E94AD1EDC01CB010196A11DB11D15
:1038200004C081E090E0A0E0B0E06E2D680F70E091
:103830008091BA069091BB060E94471F892BA9F47C
:103840000E94891EA20191010E94AD1E8091690211
:103850008F3059F0E82FF0E0EE0FFF1FE55BFD4FD2
:10386000108261838F5F80936902F12C14E2809152
:103870006902F81608F06FC0AF2DB0E0AA0FBB1FA9
:10388000A55BBD4F1196EC9111978C91823009F494
:1038900041C0A0F4882379F1813009F05AC01E9FFD
:1038A000F0011124E459FE4F628D738D635071094C
:1038B000808D918D40ED50E0039749C08330C9F170
:1038C000843009F046C08E2F90E0189FF001199FB8
:1038D000F00D1124E459FE4F66A177A166507109DD
:1038E0000196189FF001199FF00D1124E459FE4F25
:1038F0008081918129C01E9FF0011124E459FE4F5F
:1039000066897789625071098489958948ED50E00C
:1039100002971DC01E9FF0011124E459FE4F668DD1
:10392000778D64507109848D958D46EC50E0049735
:103930000EC01E9FF0011124E459FE4F62A173A135
:103940006650710980A191A14CEA50E006970E944F
:103950006416F3948CCF80916B018823C1F1109190
:103960000201E0916A0141E0410F29E0E202F00129
:103970001124E10FF11D17FDFA95DF01AA0FBB1FFE
:10398000AA0FBB1FA459BE4F56966D917C915797B5
:10399000EE0FFF1FEE0FFF1FE058FE4F8081918159
:1039A0000E9405148091BA069091BB066AE070E00F
:1039B0000E94471F892B59F48FEF810F80930201DA
:1039C00087FF05C010926B0182E0809302010E9484
:1039D0000E129CCD133084F41111C4CD4FE351E08D
:1039E00067E070E006C0143074F44EE051E068E324
:1039F00070E08EE390E0BECD1430A9F74AEF50E0BE
:103A00006AE270E007C0153009F0B6CD46EE50E02E
:103A10006EE070E081E190E0ADCD809171008D7F2E
:103A20008093710010934902E8E4F1E0F0934802BA
:103A3000E0934702F0934602E09345020E947E0F16
:103A400083E0E82EF12C87EA0E94B71064E670E06C
:103A500080E090E00E94FA0E86EA0E94B71064E6C9
:103A600070E080E090E00E94FA0E91E0E91AF1081F
:103A700051F710926B0210926A021092690246CDC1
:103A80006AE070E08BE092E00E948C1081E080930D
:103A90006B01E0914402E0936A0183E080930201AC
:103AA00024E2E202F0011124E459FE4F62A173A165
:103AB00044E080A191A10E940514FCCDCF92DF9239
:103AC000EF92FF920F931F93CF93DF931F92CDB787
:103AD000DEB7182F062FE42E862F880F8E5F99836E
:103AE0000E949B1783E00E949B17F12EC12E9981A3
:103AF000D92E8C2D8F19801798F4F601E7FE02C09D
:103B0000849101C080810E949B17182F80E00E9441
:103B10009B178123FFEFCF1ADF0A8111EACF01C083
:103B200081E00F90DF91CF911F910F91FF90EF9067
:103B3000DF90CF9008950F931F93CF93DF93EC0105
:103B400081E090E00E94CA1080FF2EC08AE090E0E1
:103B50000E94CA109FEF980F9E3F30F522E330E09D
:103B6000388B2F8728E330E03A8B298B0BE010E06D
:103B7000E881F9810190F081E02D682FCE0109954F
:103B8000C8010E94CA100F5F1F4F0131110581F754
:103B9000CE0104960E94CC1088EE93E0DF91CF9185
:103BA0001F910F910C94AA10DF91CF911F910F914B
:103BB000089504970C949B1D8091A8069091A906E6
:103BC0000C94F61FEAECF6E01382128288EE93E082
:103BD000A0E0B0E084839583A683B78386E291E07A
:103BE000918380838FEF9FEF95878487E3EBF6E0E7
:103BF000138212821186128680E1838710861782D3
:103C0000158688E391E09183808386E491E0958333
:103C10008483108A1786128A118A81E0838B148A22
:103C2000858B168A81E79EE09093A7068093A6066F
:103C300080E090E89093A5068093A40646983E9A6B
:103C400047983F9AEEEAF6E081E490E09183808322
:103C500080E290E093838283E8EAF6E011821082AA
:103C6000138212821582148242E050E06CE471E00B
:103C7000CF010C94B40E8F929F92AF92BF92CF92CD
:103C8000DF92EF92FF92CF93DF93EC01688179810D
:103C90008A819B81611571058105910521F464E29A
:103CA00079ED8BE597E02DE133EF41E050E00E94A4
:103CB000AD1E49015A019B01AC01A7EAB1E40E9483
:103CC000CC1E6B017C01ACEEB4EFA50194010E9407
:103CD000DA1EDC01CB018C0D9D1DAE1DBF1DB7FF93
:103CE00003C00197A109B04888839983AA83BB8345
:103CF000BC01CD019F77DF91CF91FF90EF90DF90D6
:103D0000CF90BF90AF909F908F9008950E943B1EE0
:103D1000089581E191E00E943B1E08956093110196
:103D20007093120180931301909314010895F999EF
:103D3000FECF92BD81BDF89A992780B50895262FB0
:103D4000F999FECF1FBA92BD81BD20BD0FB6F89480
:103D5000FA9AF99A0FBE01960895052E97FB1EF464
:103D600000940E94C41E57FD07D00E94161F07FC36
:103D700003D04EF40C94C41E509540953095219577
:103D80003F4F4F4F5F4F0895909580957095619587
:103D90007F4F8F4F9F4F08950E94381FA59F900D12
:103DA000B49F900DA49F800D911D11240895B7FF1D
:103DB0000C94CC1E0E94CC1E821B930B08952F9254
:103DC0003F924F925F926F927F928F929F92AF92AB
:103DD000BF92CF92DF92EF92FF920F931F93CF93F8
:103DE000DF93CDB7DEB7CA1BDB0B0FB6F894DEBF8F
:103DF0000FBECDBF09942A88398848885F846E84B5
:103E00007D848C849B84AA84B984C884DF80EE80FE
:103E1000FD800C811B81AA81B981CE0FD11D0FB607
:103E2000F894DEBF0FBECDBFED010895A1E21A2EBA
:103E3000AA1BBB1BFD010DC0AA1FBB1FEE1FFF1F4E
:103E4000A217B307E407F50720F0A21BB30BE40B9E
:103E5000F50B661F771F881F991F1A9469F76095E5
:103E60007095809590959B01AC01BD01CF0108959F
:103E7000A29FB001B39FC001A39F700D811D1124AB
:103E8000911DB29F700D811D1124911D0895AA1BD3
:103E9000BB1B51E107C0AA1FBB1FA617B70710F035
:103EA000A61BB70B881F991F5A95A9F78095909567
:103EB000BC01CD010895EE0FFF1F0590F491E02D98
:103EC0000994CF93DF938230910510F482E090E063
:103ED000E0911C07F0911D0720E030E0C0E0D0E049
:103EE000309711F14081518148175907C0F04817A8
:103EF000590761F482819381209719F09B838A830B
:103F00002BC090931D0780931C0726C021153105F7
:103F100019F04217530718F49A01BE01DF01EF01AF
:103F20000280F381E02DDCCF2115310509F1281B3A
:103F3000390B2430310590F412968D919C91139792
:103F40006115710521F0FB019383828304C0909376
:103F50001D0780931C07FD01329644C0FD01E20F4E
:103F6000F31F81939193225031092D933C933AC0D2
:103F700020911A0730911B07232B41F42091170140
:103F80003091180130931B0720931A0720911501D7
:103F9000309116012115310541F42DB73EB74091FE
:103FA000190150911A01241B350BE0911A07F09169
:103FB0001B07E217F307A0F42E1B3F0B2817390746
:103FC00078F0AC014E5F5F4F2417350748F04E0F75
:103FD0005F1F50931B0740931A078193919302C070
:103FE000E0E0F0E0CF01DF91CF9108950F931F93B0
:103FF000CF93DF93009709F48CC0FC0132971382B2
:10400000128200911C0710911D070115110581F402
:1040100020813181820F931F20911A0730911B0755
:104020002817390779F5F0931B07E0931A0771C039
:10403000D80140E050E0AE17BF0750F412962D9122
:104040003C911397AD012115310509F1D901F3CF49
:104050009D01DA013383228360817181860F971F6E
:104060008217930769F4EC0128813981260F371FE5
:104070002E5F3F4F318320838A819B81938382838C
:10408000452B29F4F0931D07E0931C0742C01396BB
:10409000FC93EE931297ED01499159919E01240FE3
:1040A000351FE217F30771F480819181840F951F0A
:1040B000029611969C938E938281938113969C9382
:1040C0008E931297E0E0F0E0D80112968D919C91CA
:1040D0001397009719F0F8018C01F6CF8D919C9100
:1040E00098012E5F3F4F820F931F20911A07309146
:1040F0001B072817390769F4309729F410921D0718
:1041000010921C0702C01382128210931B070093A7
:104110001A07DF91CF911F910F910895A0E0B0E0B1
:10412000E4E9F0E20C94E31EEC01009721F4CB01EA
:104130000E94611FB8C0FC01E60FF71F9C012250CE
:104140003109E217F30708F4ACC0D9010D911C91B5
:10415000119706171707B0F00530110508F49FC036
:10416000C80104978617970708F499C002501109EF
:10417000061B170B019311936D937C93CF010E9443
:10418000F61F8DC05B01A01AB10A4C01800E911E72
:10419000A0911C07B0911D0740E050E0E12CF12CEC
:1041A000109709F44AC0A815B905D1F56D907C9017
:1041B0001197630182E0C80ED11CCA14DB0480F1A0
:1041C000A3014A195B096A0182E0C80ED11C12964C
:1041D000BC9012971396AC91B5E0CB16D10440F089
:1041E000B282A38351834083D9016D937C930AC02B
:1041F0000E5F1F4FC301800F911FF90191838083D0
:10420000EB2DFA2FE114F10431F0D7011396FC9352
:10421000EE93129744C0F0931D07E0931C073FC034
:104220008D919C9111974817590708F4AC017D01B5
:1042300012960D90BC91A02DB3CF80911A0790914A
:104240001B0788159905E1F446175707C8F48091B4
:10425000150190911601009741F48DB79EB74091DA
:10426000190150911A01841B950BE817F907C8F43E
:10427000F0931B07E0931A07F901718360830FC065
:10428000CB010E94611F7C01009759F0A801BE017B
:104290000E945D21CE010E94F61FC70104C0CE011D
:1042A00002C080E090E0CDB7DEB7EEE00C94FF1ED8
:1042B00081E090E0F8940C947621FB01DC0102C0CF
:1042C00001900D9241505040D8F70895FB01DC0158
:1042D0008D91019080190110D9F3990B0895FB017C
:1042E000DC0101900D920020E1F7089515E0CBEE7E
:1042F000D5E004C0FE010E945B1F2196CC3ED10791
:06430000C9F7F894FFCF9D
:1043060050000203FFFFFFFF00E100000000000075
:10431600010100000000001E07800000C18081002E
:10432600000000000000E809690A090AFE094F0AB0
:104336000D0A2B0A000000002B112C0E760E750EAE
:104346009B1DFCFF0000D91D6F6666006F6E002086
:10435600202042202D20536F756E643A2000507243
:06436600657373204200A4
:00000001FF
