:100000000C94EE050C9416060C9416060C94160629
:100010000C9416060C9416060C9416060C941606F0
:100020000C9416060C9416060C940F140C94811460
:100030000C9416060C9416060C9416060C941606D0
:100040000C9416060C9416060C9416060C941606C0
:100050000C9416060C9416060C9416060C94C806FE
:100060000C9416060C9416060C9416060C941606A0
:100070000C9416060C9416060C9416060C94160690
:100080000C94C0070C9416060C9416060C941606D5
:100090000C9416060C9416060C9416060C94160670
:1000A0000C9416060C9416060C941606F0F89C8E0A
:1000B0008783878E9CF8F00000FEFF030303030391
:1000C000070EFCF80000FEFF0303030303070EFC0A
:1000D000F80000FFFF00000000000000FFFF00002C
:1000E000FEFF8383838383C7EE7C380000F8FC0E19
:1000F00007030303070EFCF800003F7FE0C0808089
:10010000C0E07F3FFFFF01010101010101FFFF008E
:1001100000FFFF0C0C0C0C1C3E77E3C100007FFFBE
:10012000C0C0C0C0C0E0703F1F00001F3F70E0C0F3
:10013000C0C0E0703F1F00007FFFC1C1C1C1C1E36B
:10014000773E1C00001F3F70E0C0C0C0E0703F1F42
:10015000000000000001FFFF01000000D5F08D1439
:10016000A1C881CFD9F1AF20004D696E6521004152
:100170006C69656E00000010000000EEFEFEFEFEE1
:10018000BE7E7E7C7CFCF9FCFCFEFEFEFEFEFEFEDE
:10019000FEFCFC7878302620101010101010109003
:1001A000E0800000808040402020101010101020BF
:1001B000202020100804020101000000C0000000FF
:1001C00000008080800000000000000000000000AF
:1001D000000001030FFFFFFCF00000000000000022
:1001E000C1FFFF0000000000000000000000000050
:1001F0000000000000000C0000F88FFFFFFFFFFF71
:10020000FFFCC00080C06060301D0F874743E1E104
:10021000F01008080414242444044CF08000030C5B
:10022000142F438100000000000000000000073C84
:100230002020202020202060C080C060733E7C5C95
:100240008E8F07070F1F3E7CF8E0C080000000E0A3
:100250003018F08080FFFFFF7F18080878C0F0FE9C
:10026000FFFF7F20202020A0E00000000000000011
:1002700000000000000000000F31DFFFFFFFFF7FE4
:100280001F0F07030100000038C40300001E7FFF9A
:10029000E180004020101008040200081021428470
:1002A00004F80000C13E0000000000000000000053
:1002B00000000010180C0E063F2120203060C00006
:1002C00000000F08181000000083871F1F0C07C0D4
:1002D0007018080818B8F0000000000000030707B5
:1002E0000703C040E00000070404643C0C00000069
:1002F000000000000000000202F8380503010000C1
:100300000000000080808000000101010202020361
:1003100007070E3040418204888040202010088466
:10032000423108040300000000000000060C1830F1
:1003300020604060C080000000000000000000005D
:1003400000303E12131111111111111B0E00000F7C
:100350001810180C07E1E070000100100000000008
:100360000000000203000000000366EC1818000003
:1003700000000000000000003CC30000808080807E
:1003800080804F49505050492F202020404080808D
:100390000000808040402011100808040402010081
:1003A0000000000000000000000000000000000449
:1003B0001C38F0C080030202060404000000203054
:1003C000181C1416121331216342663C000000E031
:1003D00038080C1830C0BC38380008000001000094
:1003E000808000041C18000000869293507060000A
:1003F00000000000000000000001E11904040201F7
:1004000001000000000000000000000000000000EB
:1004100001010000000000000000000000020202D4
:1004200002060408386040400000000000000000A0
:1004300000000003070F1E1C3C3870E0E0E0C0C065
:10044000C0C0E0E07078383C3E1E30604040402143
:10045000236343434363E1E0E0C0408080808282C5
:1004600083F0F8F8F8F8F0E0930F000000000000C7
:1004700000000000000808C3C300000000C3C3C39D
:10048000C3C10C0C00C3C3C3C34C0C3030C3C3FF87
:10049000FFFCFC3333FFFF14001400640014002839
:1004A000001400C80014002C011400320014006372
:1004B00000140018011400C70014001801140000F3
:1004C000804C6576656C200000000000003E5B4FAC
:1004D0005B3E3E6B4F6B3E1C3E7C3E1C183C7E3CA4
:1004E000181C577D571C1C5E7F5E1C00183C1800B2
:1004F000FFE7C3E7FF0018241800FFE7DBE7FF3042
:10050000483A060E2629792926407F050507407FAF
:1005100005253F5A3CE73C5A7F3E1C1C08081C1C22
:100520003E7F14227F22145F5F005F5F06097F0118
:100530007F006689956A606060606094A2FFA29403
:1005400008047E040810207E201008082A1C0808D1
:100550001C2A08081E101010100C1E0C1E0C30381F
:100560003E3830060E3E0E06000000000000005F20
:1005700000000007000700147F147F14242A7F2A3C
:1005800012231308646236495620500008070300FE
:10059000001C2241000041221C002A1C7F1C2A084A
:1005A000083E0808008070300008080808080000AD
:1005B00060600020100804023E5149453E00427F21
:1005C000400072494949462141494D331814127F70
:1005D0001027454545393C4A494931412111090710
:1005E0003649494936464949291E00001400000091
:1005F0004034000000081422411414141414004163
:1006000022140802015909063E415D594E7C12111F
:10061000127C7F494949363E414141227F41414157
:100620003E7F494949417F090909013E41415173D2
:100630007F0808087F00417F41002040413F017F43
:10064000081422417F404040407F021C027F7F040B
:1006500008107F3E4141413E7F090909063E415154
:10066000215E7F09192946264949493203017F0144
:10067000033F4040403F1F2040201F3F4038403F45
:10068000631408146303047804036159494D43005B
:100690007F4141410204081020004141417F040292
:1006A0000102044040404040000307080020545429
:1006B00078407F2844443838444444283844442807
:1006C0007F385454541800087E090218A4A49C785A
:1006D0007F0804047800447D40002040403D007FB6
:1006E0001028440000417F40007C047804787C0896
:1006F0000404783844444438FC182424181824246A
:1007000018FC7C08040408485454542404043F444E
:10071000243C4040207C1C2040201C3C4030403C7D
:1007200044281028444C9090907C4464544C4400DD
:100730000836410000007700000041360800020141
:100740000204023C2623263C1EA1A161123A40402D
:10075000207A3854545559215555794121545478AB
:1007600041215554784020545579400C1E52721244
:1007700039555555593954545459395554545800CC
:1007800000457C410002457D420001457C40F02946
:100790002429F0F0282528F07C5455450020545495
:1007A0007C547C0A097F49324949493232484848D9
:1007B00032324A4848303A4141217A3A4240207820
:1007C000009DA0A07D39444444393D4040403D3C1B
:1007D00024FF2424487E4943662B2FFC2F2BFF093E
:1007E00029F620C0887E0903205454794100004432
:1007F0007D413048484A32384040227A007A0A0A1D
:10080000727D0D19317D2629292F2826292929268F
:1008100030484D4020380808080808080808382FD4
:1008200010C8ACBA2F102834FA00007B000008145E
:100830002A142222142A14089500220095AA005591
:1008400000AAAA55AA55AA000000FF00101010FF28
:1008500000141414FF001010FF00FF1010F010F02F
:10086000141414FC001414F700FF0000FF00FF1420
:1008700014F404FC141417101F10101F101F14146C
:10088000141F00101010F0000000001F10101010B6
:100890001F10101010F010000000FF1010101010AA
:1008A00010101010FF10000000FF140000FF00FFE8
:1008B00000001F10170000FC04F414141710171484
:1008C00014F404F40000FF00F714141414141414A6
:1008D000F700F7141414171410101F101F14141419
:1008E000F4141010F010F000001F101F0000001F83
:1008F00014000000FC140000F010F01010FF10FFB6
:10090000141414FF141010101F00000000F010FF4A
:10091000FFFFFFFFF0F0F0F0F0FFFFFF000000002E
:1009200000FFFF0F0F0F0F0F38444438447C2A2A72
:100930003E147E02020606027E027E026355494193
:10094000633844443C04407E201E2006027E02029E
:1009500099A5E7A5991C2A492A1C4C7201724C30B2
:100960004A4D4D303048784830BC625A463D3E4989
:100970004949007E0101017E2A2A2A2A2A44445F2D
:10098000444440514A444040444A51400000FF0121
:1009900003E080FF000008086B6B0836123624362F
:1009A000060F090F06000018180000001010003094
:1009B00040FF0101001F01011E00191D1712003C1C
:1009C0003C3C3C00000000000C0C2C51410AD45C63
:1009D0005CD40A41512C02010904040101040409F8
:1009E0000102080824991A04041A99240606251AF3
:1009F0000D0D1A2504040906060942495454454EB2
:100A00002100090900107864663F3E0400000000E0
:100A1000000000000000090900103C4CCCF8F84030
:100A20000000000000000100000007051E1E171353
:100A3000171E1E09090040F8F8CC4C3C10000000BD
:100A400000010000000000090900043E3F666478D0
:100A5000100000000000000000000007050F0F1D3F
:100A6000191D0F0F14001E0064001E0028001E0038
:100A70005A001E000A001E0050001E0063001E00E7
:100A800018011E00C7001E0018011E002C011E00C8
:100A9000FA001E0096001E00B40028006400280022
:100AA000500028000080507265737320420050414E
:100AB00055534544000A5072657373204220746F89
:100AC000207265706C6179000A48692D53636F72FA
:100AD000653A200053636F72653A200047616D6587
:100AE000204F766572210008070E1F3F7E7E3F1F54
:100AF0000E0A000A5072657373204120746F2053F0
:100B000074617274006F6666006F6E000A202020A8
:100B100055502F444E202D205061757365000A20DA
:100B2000202042202D20426F6D62000A20202041AB
:100B3000202D204D697373696C65000A2020204CBC
:100B40002F52202D204D6F7665000A496E20506C83
:100B500061793A0020202042202D20536F756E6469
:100B60003A200053657474696E67733A0A00080B83
:100B70000002020201000904000001020200000557
:100B800024001001052401010104240206052406A5
:100B900000010705810310004009040100020A005A
:100BA0000000070502024000000705830240000024
:100BB0000403090412010002EF02014041233680C0
:100BC00000010102030141726475696E6F204C4C93
:100BD000430041726475626F7900C81C11241FBE06
:100BE000CFEFDAE0DEBFCDBF11E0A0E0B1E0ECE88E
:100BF000FCE302C005900D92AA34B107D9F726E0B4
:100C0000AAE4B1E001C01D92A63FB207E1F715E0EA
:100C1000CEEED5E004C02197FE010E94391ECD3EE4
:100C2000D107C9F70E947A170C94441E0C94000057
:100C3000CF92DF92EF92FF920F931F93CF93DF93A8
:100C40006C017A018B01C0E0D0E0CE15DF0589F0A0
:100C5000D8016D918D01D601ED91FC910190F0814B
:100C6000E02DC6010995892B11F47E0102C0219661
:100C7000ECCFC701DF91CF911F910F91FF90EF90C3
:100C8000DF90CF90089580913B02E0913902F0917E
:100C90003A02882349F0CF01029690933A0280935A
:100CA0003902859194910895CF01029690933A026A
:100CB000809339028081918108952D9A08958091C1
:100CC0003C0208950895089580E090E008950E9400
:100CD0003F1E3FB7F8948091540190915501A09127
:100CE0005601B091570126B5A89B05C02F3F19F0BA
:100CF0000196A11DB11D3FBFBA2FA92F982F88279C
:100D0000820F911DA11DB11DBC01CD0142E0660FF6
:100D1000771F881F991F4A95D1F708958F929F9248
:100D2000AF92BF92CF92DF92EF92FF926B017C0164
:100D30000E9469064B015C01C114D104E104F10475
:100D4000F1F00E946906DC01CB0188199909AA0912
:100D5000BB09883E9340A105B10570F321E0C21A9A
:100D6000D108E108F10888EE880E83E0981EA11CE6
:100D7000B11CC114D104E104F10419F7DDCFFF90D7
:100D8000EF90DF90CF90BF90AF909F908F9008959D
:100D90001F920F920FB60F9211242F933F938F93B0
:100DA0009F93AF93BF938091580190915901A09167
:100DB0005A01B0915B013091530123E0230F2D378D
:100DC00020F40196A11DB11D05C026E8230F02964F
:100DD000A11DB11D20935301809358019093590197
:100DE000A0935A01B0935B018091540190915501F9
:100DF000A0915601B09157010196A11DB11D80939C
:100E0000540190935501A0935601B0935701BF919F
:100E1000AF919F918F913F912F910F900FBE0F90A7
:100E20001F901895CF92DF92EF92FF920F931F932E
:100E3000CF93DF930E944306811520E8920761F467
:100E4000809171008D7F809371001092910046987F
:100E5000479810924C018BC021E020934C018130C7
:100E600020E8920751F480913702909138029093D4
:100E70003A02809339020E94430697FD05C02091F3
:100E80004B01222309F43FC020914A0121113BC0AC
:100E900021E020934D01EC01DF77209769F481E098
:100EA00080934E0146983FE9C32E3FE0D32EE12CBC
:100EB000F12CCAEFD0E014C08E0120E030E060E4F5
:100EC00072E48FE090E0A90198010E94C21D6901BF
:100ED0007A0181E0C81AD108E108F10810924E01A8
:100EE000E0917506F09176060995811103C081E0C5
:100EF00080934E0180914D018823B9F180914E017C
:100F0000811133C003C010924D01C5CF46992DC049
:100F1000479A0E944306009771F09C01DE010E94EF
:100F2000161EDC01CB0129E0B595A795979587950D
:100F30002A95D1F703C08FEF9FEFDC01109290004C
:100F40002AE020939100D0929900C092980080935B
:100F50004F0190935001A0935101B09352018091A1
:100F6000710082608093710002C04798D2CFDF91F8
:100F7000CF911F910F91FF90EF90DF90CF90089548
:100F80001F920F920FB60F9211242F933F934F93FE
:100F90005F936F937F938F939F93AF93BF93EF93E1
:100FA000FF9380914F0190915001A0915101B09118
:100FB0005201892B8A2B8B2B81F180914E0181115B
:100FC0000BC098B180E4892788B980914D018823AE
:100FD00019F088B1805888B980914F0190915001E3
:100FE000A0915101B0915201181619061A061B065C
:100FF000B4F480914F0190915001A0915101B091B2
:1010000052010197A109B10980934F0190935001BA
:10101000A0935101B093520102C00E941207FF91A8
:10102000EF91BF91AF919F918F917F916F915F9160
:101030004F913F912F910F900FBE0F901F901895D9
:101040009C01E1E7F0E090819D7F908310923B024C
:10105000E7E6F6E0F0933A02E0933902F0933802C3
:10106000E0933702318320837383628380E090E8CA
:10107000958384830C941207BC0180E090E00C946B
:101080008E068FB18095807F669B88601C9B8460F4
:1010900008955C988EBD00000DB407FEFDCF5C9AEC
:1010A000089510923C023E983F9808953E9A3F9AC8
:1010B00081E080933C02089580E00C94101110921E
:1010C0005D020E94761184E190E090938B068093FC
:1010D0008A068AE090E090938D0680938C0682E0E9
:1010E0008093900681EC94E00E945511809100015C
:1010F000082E000C990B0E941F1181E0809390062E
:101100008DE290E090938B0680938A0688E290E0CF
:1011100090938D0680938C0647E050E062E471E086
:101120008BE796E00E9418068FE796E00E945C0825
:101130000E9407110E94410882FFFCCF0C94071106
:1011400080389105B8F460347105A0F490E121E095
:1011500061FD24E060FD220F62FD2295687F969F6D
:10116000D0011124A80FA959BD4F8C91822B40FFAB
:1011700082278C9308952F923F924F925F926F92A5
:101180007F928F929F92AF92BF92CF92DF92EF9217
:10119000FF920F931F93CF93DF93CDB7DEB72797BF
:1011A0000FB6F894DEBF0FBECDBFFC016A3069F404
:1011B00025898189928938E0239F800D911D112412
:1011C000928B818B108A17869EC06D3009F49BC06C
:1011D0009F838E8335882489298333893A83618864
:1011E0007288E784F08880E8E816F104C4F0AE81E4
:1011F000BF8155962C915597422F50E01F968D91A7
:101200009C915097B6E02B9F800D911D1124EE818B
:10121000FF81908B8787268921115FC074C0F0E41D
:101220006F16710424F7C70125E0329E800D911DD1
:10123000112418161906DCF6432C512CC30138E092
:10124000339E800D911D11241816190684F685E031
:10125000689F8001112408531B4F20E0F80124905F
:10126000253009F4212C430158E020FC02C03981CB
:1012700001C03A8131110BC0F9818A81F81307C08E
:1012800026945150840C951C5111EFCF1DC067015D
:101290008C2D8E198315A0F754018A2D881983157A
:1012A00078F4432FB501C6012C833B835D830E94F4
:1012B000A0089FEFA91AB90A5D813B812C81EDCF6F
:1012C000AFEFCA1ADA0AE4CF2F5FE40CF51C0F5F08
:1012D0001F4F263009F0C2CF8ACF6AEF6403900116
:1012E000659F300D112420583F4F281739075CF4B3
:1012F000AE81BF81ED91FC9111970190F081E02DBD
:101300006AE0CD01099581E090E027960FB6F89448
:10131000DEBF0FBECDBFDF91CF911F910F91FF9028
:10132000EF90DF90CF90BF90AF909F908F907F9085
:101330006F905F904F903F902F9008952F923F9223
:101340004F925F926F927F928F929F92AF92BF92D5
:10135000CF92DF92EF92FF920F931F93CF93DF9381
:1013600000D0CDB7DEB71A8267E9C62E64E0D62E6C
:101370007EE1672E712CE8E24E2E512CF2E32F2EE7
:10138000312CACE3AA2EB12C80915D022A81281762
:1013900008F0E1C02A81022F10E0F801EE0FFF1FD4
:1013A000E15CFD4F9081809103019813BCC0918155
:1013B00080915C019813B7C080915D01882309F486
:1013C000B2C0809171008D7F8093710041E04093A5
:1013D0003B02D0923A02C0923902D0923802C092B7
:1013E00037020E94120720915C013091030149E00D
:1013F0002403C0011124830F911D37FD9A95FC0130
:10140000EE0FFF1FEE0FFF1FEE58FE4F20813181C0
:10141000490144E0841A9108880F991F880F991F89
:10142000FC01E25AFE4FE688F78884E0E81AF108EA
:1014300025E045E754E0B701C40129830E9421104B
:101440008FE796E00E945C0864E170E080E090E045
:101450000E948E062981215061F780915D022A81C8
:10146000281708F464C080916002909161020A9686
:10147000909361028093600220915E0230915F023E
:101480002431310534F42E5F3F4F30935F022093B7
:101490005E028C32914049F482E080930001B09268
:1014A0000201A09201010E945F0880916002909168
:1014B0006102843F914061F443E040930001309227
:1014C0000201209201018FE0809386060E945F084E
:1014D00080916002909161028032934061F444E017
:1014E0004093000150920201409201018EE08093EE
:1014F00086060E945F088091600290916102803BA5
:10150000944061F445E040930001709202016092C2
:1015100001018CE0809386060E945F0810925D01B5
:1015200092E0909303012A812F5F2A832DCF81506F
:1015300080935D02F801EE0FFF1FE15CFD4F90E02C
:10154000081719070CF08FCF0F5F1F4F22813381CF
:1015500021933193F5CF0F900F90DF91CF911F9191
:101560000F91FF90EF90DF90CF90BF90AF909F9042
:101570008F907F906F905F904F903F902F90089545
:10158000FC01808191810C94AC1D2F923F924F926F
:101590005F926F927F928F929F92AF92BF92CF9203
:1015A000DF92EF92FF920F931F93CF93DF9300D0C0
:1015B00000D000D0CDB7DEB781EC80937C0085B140
:1015C000806F85B984B1877E84B984B1876E84B910
:1015D0005E9A5F988AB1806D8AB9769A6E9881B367
:1015E000806F81BB899880B38D7080BB80E58CBD96
:1015F00081E08DBD85E090E00E943C085F9A85E027
:1016000090E00E943C085E985C98ECE5F1E08DE08B
:101610008E0F94919EBD00000DB407FEFDCF319654
:101620008E13F7CF5C9A81E8809364008091650007
:101630008160809365008FE796E00E945C080E94BD
:10164000410887FF10C085EA0E9449082E982F980C
:101650002D988091640080628093640081E083BF54
:10166000889513BEFCCF02E010E00E94410882FF83
:101670004EC02D980E9441088478843831F00E9431
:10168000410884718431F1F51FC00E945D0688EC29
:1016900090E00E943C082F981A830983CE0101969E
:1016A0000E94C00A8F3F29F06FEF82E090E00E9415
:1016B000B41D84EF91E00E943C082F9A0E944108DB
:1016C00084788438D9F3DBCF0E945D0688EC90E003
:1016D0000E943C082E981A830983CE0101960E942D
:1016E000C00A882329F060E082E090E00E94B41DE7
:1016F00084EF91E00E943C082E9A0E944108847178
:101700008431D9F388EC90E00E943C08AECF0E946F
:101710005D0682E090E09A838983CE0101960E9463
:10172000C00A882319F00E94560802C00E9451087E
:10173000EE24E394F12CFA82E982CE0101960E9414
:10174000C00A082FCE0101960E94C00A81FF48C03E
:1017500002FB112710F902FD2E9890EFE92EFF24CD
:10176000FA940E94410886FF04C02E9A2F9A2D9A5F
:1017700037C0112331F004E0E016F10411F42E9A81
:101780002F9881E00E94101100E128E54CEA50E01A
:10179000B70184E190E00E9489118FE796E00E94F2
:1017A0005C088FE090E00E943C082FEFE21AF20AFA
:1017B00039E1E316F104A9F6112311F02F9A2D98BF
:1017C00080E991E00E943C080E945D06E0917F065E
:1017D000F09180060190F081E02D8FE796E0099569
:1017E0000E94071180E18093860619821A821B826B
:1017F0001C828E010F5F1F4FE12CFF24F394FE82A9
:10180000ED82CE0105960E94C00AF80181938F01F6
:10181000FFEFEF1AFF0A24E0E21621E0F20679F763
:1018200089819A8190933E0280933D0268E270E044
:1018300070935F0160935E014AE050E05093610154
:10184000409360018AE5C82ED12CD0926301C092EA
:101850006201509365014093640198E3692E712CF5
:10186000709267016092660129E1A22EB12CB092BC
:101870006901A0926801AAE4B0E0B0936B01A09363
:101880006A01B0926D01A0926C0181E490E09093A6
:10189000730180937201EAE1F0E0F0937501E09347
:1018A0007401909377018093760124E130E03093C6
:1018B00079012093780190937B0180937A012EE047
:1018C00030E030937D0120937C0190937F018093E1
:1018D0007E01509381014093800190936F0180932A
:1018E0006E015093710140937001D0928301C092B8
:1018F00082015093850140938401E8E7F0E0F09382
:101900008701E093860120E230E030938901209343
:101910008801B0938B01A0938A01B0928D01A092AF
:101920008C0110E5212E312C30928F0120928E01F6
:101930003093910120939001B0939701A093960169
:101940000DE1E02EF12CF0929901E0929801D092F5
:101950009B01C0929A01B0929D01A0929C0104E665
:1019600010E010939F0100939E0117E1412E512C2E
:101970005092A1014092A0010AE6802E912C9092F3
:10198000A3018092A2015092A5014092A4019092DD
:101990009301809292015092950140929401F093AC
:1019A000A701E093A6013093A9012093A801D0924A
:1019B000AB01C092AA01E6E3F0E0F093AD01E09341
:1019C000AC013092AF012092AE013093B10120936F
:1019D000B001B093B301A093B20107E210E01093FD
:1019E000B5010093B401B093BB01A093BA010F2ECF
:1019F000F3E2EF2EF12CF02DF092BD01E092BC014C
:101A00000F2EF7E5EF2EF12CF02DF092BF01E092B2
:101A1000BE017093C1016093C0010F2EF4E6EF2E5A
:101A2000F12CF02DF092C301E092C2010F2EF9E2E9
:101A3000EF2EF12CF02DF092C501E092C4019092AE
:101A4000C7018092C6010F2EFAE2EF2EF12CF02D85
:101A5000F092C901E092C8019092B7018092B6015C
:101A6000F092B901E092B801D092CB01C092CA01C4
:101A7000F093CD01E093CC017093CF016093CE0140
:101A8000F093D101E093D001B093D301A093D201A0
:101A90001093D5010093D4017092D7016092D601C2
:101AA0001093D9010093D8019093DF018093DE0158
:101AB000A6E2B0E0B093E101A093E0019093E301CE
:101AC0008093E201ACE2B0E0B093E501A093E401C1
:101AD0009093E7018093E601A2E3B0E0B093E901BF
:101AE000A093E8019093EB018093EA01F093ED015C
:101AF000E093EC019093DB018093DA01F093DD0138
:101B0000E093DC017093EF016093EE01F093F1013B
:101B1000E093F0015093F3014093F2013093F5010B
:101B20002093F4017092F7016092F6011093F9018D
:101B30000093F801B093FB01A093FA013093FD01EB
:101B40002093FC01E7E3F0E0F0930302E09302024C
:101B500084E290E090930502809304027093070260
:101B60006093060210930902009308020EE110E050
:101B700010930B0200930A0270930D0260930C0203
:101B800088E190E090930F0280930E02F092110290
:101B9000E09210029093FF018093FE01F092010207
:101BA000E092000250931302409312023093150208
:101BB0002093140270931702609316025093190237
:101BC00040931802B0931B02A0931A0230931D0297
:101BD00020931C0270921F0260921E02B09221029A
:101BE000A0922002F0932702E09326022DE130E03C
:101BF0003093290220932802F0922B02E0922A02CD
:101C0000EAE1F0E0F0932D02E0932C0210932F0212
:101C100000932E0250923102409230029093330290
:101C20008093320226E130E0309335022093340273
:101C30009093230280932202309325022093240262
:101C40001092360210925D0110925C0182E0809346
:101C50000301109261021092600283E080930401FC
:101C600081E08093000110925F0210925E02309238
:101C700002012092010110925D020E94761100E3A0
:101C800020E845E751E060E070E080E090E00E94ED
:101C9000891100E310E010938B0600938A06F092FE
:101CA0008D06E0928C068FE691E00E94551110930C
:101CB0008B0600938A0684E390E090938D068093D0
:101CC0008C0689E691E00E9455118FE796E00E940C
:101CD0005C0864EC79E080E090E00E948E0610924F
:101CE000620226960FB6F894DEBF0FBECDBFDF911D
:101CF000CF911F910F91FF90EF90DF90CF90BF9009
:101D0000AF909F908F907F906F905F904F903F909B
:101D10002F9008958F929F92AF92BF920F931F932F
:101D2000CF93DF93CDB7DEB7A1970FB6F894DEBFA0
:101D30000FBECDBF19A2423008F44AE08E010F5DFC
:101D40001F4F842E912CA12CB12CA50194010E942F
:101D5000F41DE62FB901CA0101501109EA3014F44B
:101D6000E05D01C0E95CD801EC93232B242B252BEB
:101D700061F70115110571F0F80101900020E9F7F4
:101D80003197AF01401B510BB8018BE796E00E94E1
:101D9000180602C080E090E0A1960FB6F894DEBF6E
:101DA0000FBECDBFDF91CF911F910F91BF90AF902C
:101DB0009F908F90089520918506282329F4909173
:101DC0008406982381E009F480E00895EF92FF9261
:101DD0000F931F93CF93DF937C018B01040F111D91
:101DE000EB0177FF0CC0C0E0D0E009C0C217D307F9
:101DF0006CF441E0BE01C7010E94A0082196980141
:101E0000013411059CF320E430E0F0CFDF91CF9155
:101E10001F910F91FF90EF9008952F923F924F9254
:101E20005F926F927F928F929F92AF92BF92CF926A
:101E3000DF92EF92FF920F931F93CF93DF9300D027
:101E40001F92CDB7DEB75C014B01242F30E03B83FE
:101E50002A83440F4F5F621B730B0E94E60E01E062
:101E600010E02A813B81021B130B1901319421944C
:101E70003108220C331CE12CF12CCC24C394D12C3E
:101E80002A813B81E216F3060CF042C017FD0BC01D
:101E90002A813B81215031093B832A8332E0230E82
:101EA000311C020D131D8FEFE81AF80A92E0C90EDB
:101EB000D11C0C0D1D1D2A81220F2F5F422F2401E2
:101EC0008A819B81481A590AB201C7018A0D9B1D5C
:101ED00029830E94E60E34016E187F084C2DB30151
:101EE0008A819B818A0D9B1D0E94E60E2981422FCB
:101EF000B201C5018E199F090E94E60E4C2DB30157
:101F0000C5012A813B81821B930B0E94E60EB8CF4C
:101F10000F900F900F90DF91CF911F910F91FF9035
:101F2000EF90DF90CF90BF90AF909F908F907F9079
:101F30006F905F904F903F902F9008955F926F92B7
:101F40007F928F929F92AF92BF92CF92DF92EF9249
:101F5000FF920F931F93CF93DF93EC018B017A01D4
:101F6000A901461B570B57FF03C0519541955109D5
:101F7000C7018C1B9D0B97FF03C09195819591091B
:101F8000552453948417950714F0512C0AC09E2DA4
:101F90008F2D7901292F382F9C2F8D2FE801092FA4
:101FA000182FEC16FD0654F4902F812F8901292F4C
:101FB000382F9C2F8D2FE701E92EF82E6701CC1AC0
:101FC000DD0A5901A01AB10AB7FE03C0B194A19469
:101FD000B1083601D7FE03C08FEF681A780A7594EE
:101FE00067940217130714F08FEF01C081E0882E69
:101FF000880F9908EC16FD06A4F041E0552019F071
:10200000BE01C80102C0B801CE010E94A0086A1832
:102010007B0877FE04C0080D191D6C0C7D1C2196F1
:10202000E9CFDF91CF911F910F91FF90EF90DF905B
:10203000CF90BF90AF909F908F907F906F905F9068
:1020400008954F925F927F928F929F92AF92BF922C
:10205000CF92DF92EF92FF920F931F93CF93DF9374
:1020600000D000D0CDB7DEB7DC014115510509F431
:10207000BAC0FA01D490319634914D2C512C5C01A8
:10208000A40CB51C1A141B040CF0ADC080389105CB
:102090000CF0A9C0CB01830F911D181619060CF086
:1020A000A2C0603471050CF09EC0F62FF770EF2EC1
:1020B000CB0177FD079623E0959587952A95E1F763
:1020C000F82F77FF04C0EE2011F0FFEFF80FB7FFF5
:1020D00005C0662777276A1B7B0B02C060E070E0B3
:1020E00000E8A016B10424F080E8F82EFA1A01C026
:1020F000FD2CF61AAF2E0F2E000CBB08FF3F1CF470
:10210000CA2CC09401C0C12C91E0832F877009F4C0
:1021100090E0369536953695930FA90EB11C19E0CF
:10212000A116B10414F098E09F1B8C2D8F0F9D0118
:10213000082F10E80103200D311D1124260F371F31
:102140004E5F5F4FCD9C600D711D1124460F571FD0
:1021500061E070E00E2C02C0660F771F0A94E2F770
:10216000EFEFE69FD001E79FB00D1124A095B09549
:10217000BC83AB837C809F0F8917A9F1F901E959D2
:10218000FD4F6F01A12CB12CAF1438F5FA01EA0D07
:10219000FB1DE491E69F4001E79F900C11249A8279
:1021A000898287FD07C0F6011081E12FEA238E2A7C
:1021B000F6018082EE2051F0873044F4F601E058B9
:1021C000FF4F908097208A8098289082FFEFAF1A67
:1021D000BF0A0FEFC01AD00AD7CF8F5F440D551D2D
:1021E00020583F4FC9CF0F900F900F900F90DF9165
:1021F000CF911F910F91FF90EF90DF90CF90BF9004
:10220000AF909F908F907F905F904F90089582E362
:1022100090E00E943C080E9441088111F8CF089587
:10222000E7E6F2E0A0E0B8E000800EBC8111012CEE
:102230001197A0FDFDCF0192B9F70DB40895CF928B
:10224000DF92EF92FF92CF93DF936C01990FEE082C
:10225000FF08F7FE1FC0E0917B06F0917C0601901D
:10226000F081E02D6DE28BE796E00995EC016627A1
:102270007727CB016C197D098E099F094AE00E94DE
:102280008A0E8C0F9D1FDF91CF91FF90EF90DF9012
:10229000CF9008954AE0C701B601DF91CF91FF903A
:1022A000EF90DF90CF900C948A0E0F931F93CF93F3
:1022B000DF938C01C0E0D0E0F801EC0FFD1F6491CA
:1022C000662371F0E0917B06F0917C060190F0812D
:1022D000E02D8BE796E00995892B11F02196ECCF44
:1022E000CE01DF91CF911F910F91089580E0E7E635
:1022F000F2E081118FEF0024819381938193819388
:102300000394D1F7EBE7F6E0128A118A108A178658
:1023100008952F923F924F925F926F927F928F9289
:102320009F92AF92BF92CF92DF92EF92FF920F9364
:102330001F93CF93DF93CDB7DEB728970FB6F894EE
:10234000DEBF0FBECDBF5A01822E912C9C01280DFD
:10235000391D37FDC4C0803891050CF0C0C09B0109
:10236000200F311D37FDBBC0603471050CF0B7C0C4
:10237000AB0177FF04C044275527461B570B477016
:1023800055279B0177FF02C0295F3F4FE3E035955A
:102390002795EA95E1F777FF08C02150310968E0F9
:1023A00070E0DB01A41BB50BAD01602F669566954F
:1023B000669570E0077011F06F5F7F4FDB01A20F31
:1023C000B31FBA83A98339017694762C6624779457
:1023D0006794680E791EE12CF12C00E010E02301D7
:1023E000B0E84B0E511C68E070E0DB01A41BB50B9C
:1023F000BC83AB8369817A812617370709F46FC0E4
:102400002830310509F46BC02F3FBFEF3B070CF4B8
:102410005BC0B201600F711FDB01A959BD4FBE83C4
:10242000AD83D801A60DB71DA959BD4F6C0160E061
:1024300070E0681579050CF047C0E0E8CE16D104CD
:1024400009F442C0D7FC34C02F3FFFEF3F0709F427
:1024500042C0FB01EE0DFF1DEA0DFB1DE491042EB1
:1024600001C0EE0F0A94EAF73C90E329EC93411582
:102470005105F1F027303105D9F0FB01EE0DFF1DBC
:10248000EA0DFB1DE4912E2E312CF1010B8002C0D0
:10249000F595E7950A94E2F7F887EF83ED81FE81E1
:1024A0003080EF81F885E3291F01ED81FE812082D4
:1024B0006F5F7F4FED81FE813196FE83ED83FFEFED
:1024C000CF1ADF0A1196B5CF2F5F3F4F00581F4F2D
:1024D000E80CF91C8FCF4115510579F6E9CF289604
:1024E0000FB6F894DEBF0FBECDBFDF91CF911F9125
:1024F0000F91FF90EF90DF90CF90BF90AF909F90A3
:102500008F907F906F905F904F903F902F900895A5
:10251000FC0180916602811103C08FEF9FEF089547
:102520009FB7F89482E08093E9002091F20030E0B8
:102530001216130614F421E030E02115310559F08C
:10254000289884E6809365028091F10080838091D1
:10255000F200882319F09FBFC90108958BE680938C
:10256000E800F9CF2FB7F89483E08093E9009091C9
:10257000E800892F807295FF04C09091F20080E4FA
:10258000891B2FBF08958091960681110DC082E0AE
:102590008093920684E080939306109295061092A1
:1025A000940681E08093960682E996E00895CF93A1
:1025B000DF931F92CDB7DEB76983DC01ED91FC910B
:1025C0000280F381E02D41E050E0BE016F5F7F4F5C
:1025D00009950F90DF91CF91089583E08093E900F2
:1025E0008091F200882319F08AE38093E80008952F
:1025F000FC018485958597FD0BC09FB7F89482E018
:102600008093E9008091F2009FBF90E001960895C9
:102610009FB7F89482E08093E9008091F2009FBF19
:1026200090E008958F929F92AF92BF92CF92DF92E7
:10263000EF92FF920F931F93CF93DF935C016B0197
:102640007A0180911001882309F45BC080916602B1
:10265000882309F456C08091F30680FF05C080915D
:10266000E00082608093E000E70110E00AEF83E081
:10267000882E9AE3992E2097D9F10E94B2128111E7
:102680000AC0015009F43DC061E070E080E090E0D4
:102690000E948E06F0CF282F30E0C217D3070CF42B
:1026A0008C2F4FB7F8948092E9009091E80095FF45
:1026B0001DC0282F30E0C21BD30BF601982F91507C
:1026C00020F081918093F100FACFC20ED31E112326
:1026D00019F09092E80009C08091E80085FD06C0DD
:1026E0009092E80011E0209709F010E04FBFC3CFAF
:1026F0001111C3CF5D9884E68093F5061E141F0464
:1027000044F081E090E0F5019383828380E090E0E3
:1027100001C0C701DF91CF911F910F91FF90EF9002
:10272000DF90CF90BF90AF909F908F9008950E94C0
:10273000B21290E008950F931F93CF93DF931F92EF
:10274000CDB7DEB78C01FC018485958597FF0EC05F
:10275000CE0101960E948812019719F4298130E078
:1027600002C02FEF3FEFF80135872487F8018485F9
:1027700095850F90DF91CF911F910F910895CF9381
:10278000DF931F92CDB7DEB7FC018485958597FD59
:1027900005C02FEF3FEF358724870BC0CE01019690
:1027A0000E948812019719F4898190E002C08FEF8E
:1027B0009FEF0F90DF91CF9108950F931F93CF93C9
:1027C000DF931F92CDB7DEB782E0898342E450E009
:1027D0006EE67BE080E80E94EC160E94C312DC01EA
:1027E00012960D911C9113970115110569F0D801EE
:1027F000ED91FC910280F381E02DBE016F5F7F4F70
:10280000C801099597FF07C089810F90DF91CF918B
:102810001F910F910895F80100851185E5CF1F9252
:102820000F920FB60F9211248F939F938091E10026
:102830009091E100937F9093E10083FF0FC010928D
:10284000E90091E09093EB001092EC0092E39093FA
:10285000ED001092660298E09093F00082FF20C095
:1028600093E09093E9009091F200992319F09AE394
:102870009093E8009091F506992339F09091F50630
:1028800091509093F506992389F1909165029923CF
:1028900039F090916502915090936502992341F12E
:1028A00084FF10C08091E2008E7E81608093E20000
:1028B0008091E1008F7E8093E1008091F3068E7E0F
:1028C000806111C080FF16C08091E2008E7E806121
:1028D0008093E2008091E1008E7E8093E100809100
:1028E000F3068E7E81608093F30604C05D9ACDCF9F
:1028F000289AD6CF9F918F910F900FBE0F901F9067
:1029000018951F920F920FB60F921124CF92DF925B
:10291000EF92FF920F931F932F933F934F935F93E9
:102920006F937F938F939F93AF93BF93EF93FF9397
:10293000CF93DF93CDB7DEB76C97DEBFCDBF1092DC
:10294000E9008091E80083FFFAC168E0CE01459676
:102950000E94131782EF8093E8008D8987FF05C0DE
:102960009091E80090FFFCCF03C09EEF9093E800A9
:10297000982F907609F0C6C09E892F89188D9111E5
:102980000CC0803829F48091F2068093F10002C0D7
:102990001092F1001092F10049C1422F50E0512BEA
:1029A000913051F4811142C14130510509F03EC1CD
:1029B0008091F2068D7F0BC0933061F4811136C196
:1029C0004130510509F032C18091F2068260809356
:1029D000F2062CC1953041F48091E80080FFFCCFD5
:1029E00020682093E30022C1963009F05FC0EB8C91
:1029F000FC8C1092E9001092F1061092F006123051
:102A000091F51092EF061092EE060E94DD1399E008
:102A1000BE016F5F7F4FDB01E92F1D92EA95E9F759
:102A200099831A8391E09E8390EA98879AEF998719
:102A30002091F0063091F106275F3F4F3C832B83B6
:102A40008D831092E9001092F1061092F006F09238
:102A5000EF06E092EE0649E050E080E00E94EC16BE
:102A60000E94DD13E3C0F092EF06E092EE060E94B2
:102A7000C312DC011296ED90FC901397E114F1045F
:102A800009F4C1C0D701ED91FC910480F581E02DDE
:102A9000BE016B5E7F4FC7010995009719F00CF0DE
:102AA000C5C0C8C0F701E084F184E8CF973009F4CD
:102AB000C1C0983021F481E08093F100B7C0993013
:102AC00009F0B4C0837009F0B5C0ECE3F1E081E037
:102AD00021E036E39081992361F08093E90020930F
:102AE000EB0091919093EC003093ED008F5F873075
:102AF00089F78EE78093EA001092EA008F8980932D
:102B0000660294C08B8D9C8D1092E9001092F106A4
:102B10001092F0069093EF068093EE06898D811156
:102B200059C08E899D89913A59F4813209F082C049
:102B300047E050E069E071E080E00E94EC1676C06A
:102B4000913209F077C0833289F4888D90E0982F14
:102B500088272F89822BA0E0B0E080930501909315
:102B60000601A0930701B093080160C0803269F4A8
:102B70008091E80082FFFCCF67E089E091E00E944D
:102B800013178BEF8093E80051C0823209F04EC0DA
:102B90008F8980931001EEEFFFE7859194918B3F31
:102BA0009C4D19F4EEEFFAE002C0E0E0F8E080910D
:102BB000090190910A01A0910B01B0910C01803B99
:102BC0009440A105B10509F079C08091100180FF02
:102BD00095C074C00E94C312FC01028113810115CB
:102BE000110541F1D801ED91FC910190F081E02DAA
:102BF000BE016B5E7F4FC8010995811117C0F801B6
:102C000000851185ECCF113009F44EC0133091F4DA
:102C10008F89882309F445C0823081F440E867E059
:102C200082ED9BE00E94131D882321F08EEF80939C
:102C3000E80085C081E28093EB0081C0813029F4F7
:102C400040E86BE086EC9BE0EDCF833099F70E9483
:102C5000C312DC011296ED90FC9013978E010F5F6A
:102C60001F4F6801E114F10479F0D701ED91FC9157
:102C70000680F781E02DB801C7010995080F111DE5
:102C8000F701E084F184EECFD8011C92F6010190A7
:102C90000020E9F73197BF016C197D0940E0C601BA
:102CA000C1CF60EB7BE002C064EB7BE06115710596
:102CB00009F2FB01449150E080E83FCF808191818F
:102CC0008737974709F0B2CFA89580916000886157
:102CD000809360008091F40680936000EE3FBAE03C
:102CE000FB0739F08091FE0A9091FF0A918380835F
:102CF0009DCF1092FF0A1092FE0A98CFEE3F8AE015
:102D0000F80751F0808191818737A7E79A0721F072
:102D10009093FF0A8093FE0A87E797E79183808369
:102D2000809160008093F4069BE088E10FB6F894F0
:102D3000A895809360000FBE9093600077CF6C964B
:102D40000FB6F894DEBF0FBECDBFDF91CF91FF91DC
:102D5000EF91BF91AF919F918F917F916F915F9113
:102D60004F913F912F911F910F91FF90EF90DF9026
:102D7000CF900F900FBE0F901F9018954091F006C6
:102D80005091F1062091EE063091EF06421753075D
:102D9000B4F49091E8009570E1F39091E80092FD11
:102DA00019C08093F1008091F0069091F106019690
:102DB0008F739927892B19F48EEF8093E800809107
:102DC000F0069091F10601969093F1068093F0063B
:102DD00081E0089580E00895DF92EF92FF920F93D3
:102DE0001F93CF93DF93D82E8A017B01E40EF51E4B
:102DF000EB01CE15DF0571F0D7FE03C0FE01849113
:102E000001C088810E94BE1621968111F2CF8FEFFA
:102E10009FEF01C0C801DF91CF911F910F91FF90EB
:102E2000EF90DF900895615030F02091F100FC01A7
:102E300020830196F8CF289884E680936502089550
:102E4000EF92FF920F931F93CF93DF9300D0CDB7F4
:102E5000DEB78C0181E090E09A838983CE010196F0
:102E60000E94C00A80FF3AC08AE090E09A8389837A
:102E7000CE0101960E94C00A9FEF980F9E3F70F509
:102E800022E330E0D80150963C932E931F9728E31D
:102E900030E052963C932E9351979BE0E92EF12C13
:102EA000D801ED91FC910190F081E02D682FC801CF
:102EB0000995FA82E982CE0101960E94C00ABFEF0D
:102EC000EB1AFB0AE1E1EE16F10451F7C801049692
:102ED0000E945C0888EE93E00E943C080F900F90DF
:102EE000DF91CF911F910F91FF90EF90089504977C
:102EF0000C942017CF93DF93CDB7DEB728970FB68A
:102F0000F894DEBF0FBECDBF789484B5826084BDD7
:102F100084B5816084BD85B5826085BD85B58160DD
:102F200085BD80916E00816080936E00109281005B
:102F30008091810082608093810080918100816016
:102F400080938100809180008160809380008091D7
:102F500091008260809391008091910081608093C4
:102F60009100809190008160809390008091C100D9
:102F700084608093C1008091C10082608093C10011
:102F80008091C10081608093C1008091C300816005
:102F90008093C3008091C00082608093C0008091C4
:102FA000C20081608093C20080917A008460809327
:102FB0007A0080917A00826080937A0080917A0012
:102FC000816080937A0080917A00806880937A0093
:102FD000109266021092F2061092F3068091D700CA
:102FE00081608093D70080EA8093D80089B58061A2
:102FF00089BD89B5826089BD09B400FEFDCF61E05D
:1030000070E080E090E00E948E068091D8008F7C76
:1030100080618093D8008091E000807F8093E00001
:103020008091E1008E7E8093E1008DE08093E2004C
:10303000559A209A0E94C50A8EE992E024E1280F51
:103040002F8376E0272E312C412C512C03E88FB7AB
:10305000F894409158015091590160915A01709132
:103060005B018FBF80918706942F981B892F9091C9
:103070008806992329F08093890610928806A9C1B1
:1030800090918606891748F48F5F891708F0A1C1CF
:1030900081E083BF889513BE9CC181E08093880640
:1030A00040938706809182069091830601969093C3
:1030B00083068093820610916202113009F496C053
:1030C00060F1123009F4C6C0133009F07EC120E36C
:1030D000E22EF12CF0928B06E0928A0680E290E0DC
:1030E00090938D0680938C068EEA9AE00E9455118B
:1030F000F0928B06E0928A068CE290E090938D0627
:1031000080938C0686EA9AE00E9455118FE796E03C
:103110000E945C080E9407114FC10E94761183E64D
:103120009BE00E94551184E59BE00E94551180911F
:103130003C02811103C085E09BE002C089E09BE076
:103140000E9455118AE49BE00E9455118BE39BE09D
:103150000E9455118BE29BE00E9455118EE19BE08D
:103160000E9455118CE09BE00E94551180916302F2
:103170009091640201969093640280936302499750
:103180001CF483EF9AE002C081EF9AE00E9455118F
:103190008091630290916402839724F010926402FC
:1031A000109263028FE796E00E945C08809184068B
:1031B000809385060E9441088093840688E00E94DF
:1031C000DB0E882319F081E08093620284E00E9484
:1031D000DB0E882309F4F9C080913C02882319F0A2
:1031E0000E945108F2C00E945608EFC00E9476115A
:1031F00080916002909161020E941F1147EE5AE097
:1032000060E070E08EE690E00E942110E8E7F0E0D8
:10321000F0938B06E0938A0610928D0610928C062E
:1032200080910401082E000C990B0E941F118091BF
:103230008406809385060E9441088093840680E876
:103240000E94DB0E8111CDC080E10E94DB0E811156
:10325000C8C0C9C0809171008D7F809371001092A9
:103260003B0287E696E090933A028093390290936E
:1032700038028093370286E091E09093680680934D
:10328000670684EF91E090936A068093690623E8CD
:1032900030E030936C0620936B0690936E0680931B
:1032A0006D0681E290E09093700680936F0688EE41
:1032B00093E090937206809371060E94120720910A
:1032C00060023091610280913D0290913E0282172E
:1032D00093070CF4C90190933E0280933D02092E9E
:1032E000000CAA0BBB0B89839A83AB83BC83FE01C2
:1032F00031967F01C12CDD24D394F70161917F01C8
:10330000DE82CD82CE01059668870E94C00A68855C
:10331000681719F0C6010E94B41DFFEFCF1ADF0A2B
:1033200024E0C21621E0D20641F70E94761188E01F
:1033300090E090938B0680938A0610928D061092EF
:103340008C0682E0809390068CED9AE00E945511E5
:1033500081E08093900610928B0610928A0688E195
:1033600090E090938D0680938C0684ED9AE00E9405
:10337000551180916002909161020E941F1188ECAA
:103380009AE00E94551180913D0290913E020E9468
:103390001F1185EB9AE00E9455118FE796E00E947D
:1033A0005C080E9407110E94410882FFFCCF0E9426
:1033B00007110E94C50A09C00E94410882FFFCCF84
:1033C0000E94071181E0809362028FE796E00E94DD
:1033D0005C0880E090E0892B09F439CE0E9400005F
:1033E00035CE83E0F0CF84E00E94DB0E882309F421
:1033F0004DC080915E0290915F02449709F046C0F3
:10340000809171008D7F8093710010933B0284E660
:103410009AE090933A028093390290933802809315
:1034200037020E94120783E0E82EF12C1FEF91EF84
:10343000D92E04BD17BDD092800010928800109341
:103440008A0087EA0E94490864E670E080E090E024
:103450000E948E0604BD17BDD09280001092880095
:1034600010928A0086EA0E94490864E670E080E0D3
:1034700090E00E948E06F1E0EF1AF108D1F610926A
:103480005F0210925E0210925D029FCF1091360291
:10349000123009F03CC243E35AE069E270E089E689
:1034A00090E008C0113041F447E45AE06EE070E06B
:1034B0008AE690E00E9421106EE5E62E61E0F62E8D
:1034C000F701A680B780C480D58062807380808039
:1034D00091809501A601B301C4010E949E0FF701DE
:1034E00026853785448555856285738580859185D8
:1034F0000E949E0F2091790630917A0640917706BE
:1035000050917806B301C4010E949E0F2091790664
:1035100030917A064091770650917806B501C60140
:103520000E949E0FF4E2EF0EF11C26E3E21622E069
:10353000F20631F6EEE9F2E0DF018F818A1721F021
:103540008C9181608D93F9CF9F819E1721F08081AE
:1035500088608193F9CF44E060E070E087E390E019
:103560000E94E60E44E060E070E08AE490E00E9491
:10357000E60EE0905E02F0905F02E114F10431F497
:1035800080E20E94DB0E811115C01DC057E3C52EDD
:10359000D12CFF24F7E3EF0EF11CCE14DF0484F7E7
:1035A00044E060E070E0C6010E94E60EEFEFCE1A44
:1035B000DE0AF3CF115017FD03C01093360203C08B
:1035C00085E08093360280E40E94DB0E882351F070
:1035D000809136028F5F86301CF48093360202C0E1
:1035E0001092360288E00E94DB0E882329F0809139
:1035F0005D01882309F4AEC160910101709102015F
:10360000772780918206909183060E94251E892B40
:1036100069F00E949E09809164008E7F809364000F
:1036200080917A00806480937A005AC0F12CEE2455
:10363000EA9411EF32E0D32E80915D02F81648F73C
:10364000EF2DF0E0EE0FFF1FE15CFD4F80818F5FFB
:10365000808384300CF442C068EE73E081E290E035
:103660000E94200804BDE7BC1093800010928800DF
:10367000E0928A008091790690917A0604972091D1
:103680007706309178062251310930938B062093CA
:103690008A0690938D0680938C068AEF99E00E94AB
:1036A00055118FE796E00E945C0868EE73E080E0B9
:1036B00090E00E948E0604BDE7BC1093800010923B
:1036C000880010928A0010925D028091040181505E
:1036D00080930401811102C0D0926202F394ACCFB6
:1036E00080917A0086FDFCCFE0907800F090790020
:1036F0000E9469066701E12CF12C7601DD24CC24BF
:103700006C0D7D1D8E1D9F1D2091640021602093F6
:103710006400611571058105910511F00E94A31DDA
:10372000E0900101F09002014701FF0CAA08BB08DC
:1037300022E082169104A104B10484F00E949E1D2F
:10374000A501940121503109410951090E94C21D6E
:10375000DC01CB010196A11DB11D04C081E090E008
:10376000A0E0B0E06E2D680F70E08091820690912D
:1037700083060E94251E892BA9F40E949E1DA2018A
:1037800091010E94C21D80915D028F3059F0E82F97
:10379000F0E0EE0FFF1FE15CFD4F108261838F5F51
:1037A00080935D02F12C14E280915D02F81608F01E
:1037B0006FC0AF2DB0E0AA0FBB1FA15CBD4F11962B
:1037C000EC9111978C91823009F441C0A0F48823C8
:1037D00079F1813009F05AC01E9FF0011124E25A9C
:1037E000FE4F628D738D63507109808D918D4CEE0B
:1037F00059E0039749C08330C9F1843009F046C0CD
:103800008E2F90E0189FF001199FF00D1124E25ABD
:10381000FE4F66A177A1665071090196189FF001CD
:10382000199FF00D1124E25AFE4F8081918129C029
:103830001E9FF0011124E25AFE4F6689778962507B
:1038400071098489958944EF59E002971DC01E9F34
:10385000F0011124E25AFE4F668D778D6450710994
:10386000848D958D42EE59E004970EC01E9FF001A5
:103870001124E25AFE4F62A173A16650710980A122
:1038800091A148EC59E006970E942110F3948CCF47
:1038900080915D018823C1F110910301E0915C01E9
:1038A00041E0410F89E0E802F0011124E10FF11D30
:1038B00017FDFA95DF01AA0FBB1FAA0FBB1FA25A63
:1038C000BE4F56966D917C915797EE0FFF1FEE0FEE
:1038D000FF1FEE58FE4F808191810E940D0F809155
:1038E0008206909183066AE070E00E94251E892B73
:1038F00059F48FEF810F8093030187FF05C0109269
:103900005D0182E0809303010E949E095ECD133029
:1039100084F41111C7CD4BE55AE067E070E006C0B2
:10392000143074F44AE25AE068E370E08EE390E009
:10393000C1CD1430A9F746E15AE06AE270E007C051
:10394000153009F0B9CD42E05AE06EE070E081E157
:1039500090E0B0CD6AE070E08BE092E00E94200839
:1039600081E080935D01E0913602E0935C0183E0A9
:103970008093030184E2E802F0011124E25AFE4F31
:1039800062A173A144E080A191A10E940D0F34CEE9
:10399000EEE9F6E01382128288EE93E0A0E0B0E058
:1039A00084839583A683B78389E191E091838083A3
:1039B0008FEF9FEF95878487EBE7F6E01382128203
:1039C0001186128680E183871086178215868BE226
:1039D00091E09183808389E391E095838483108AC9
:1039E0001786128A118A81E0838B148A858B168A46
:1039F0008FE596E0909376068093750680E090E8D8
:103A0000909374068093730646983E9A47983F9A1F
:103A1000E7E7F6E081E490E09183808380E290E044
:103A2000938382830895CF92DF92EF92FF920F9358
:103A30001F93CF93DF931F92CDB7DEB7182F062FBA
:103A4000E42E862F880F8E5F99830E94BE1683E036
:103A50000E94BE16F12EC12E9981D92E8C2D8F1960
:103A6000801798F4F601E7FE02C0849101C08081BE
:103A70000E94BE16182F80E00E94BE168123FFEF21
:103A8000CF1ADF0A8111EACF01C081E00F90DF91E8
:103A9000CF911F910F91FF90EF90DF90CF900895FD
:103AA0008F929F92AF92BF92CF92DF92EF92FF924E
:103AB000CF93DF93EC01688179818A819B816115C5
:103AC00071058105910521F464E279ED8BE597E0BC
:103AD0002DE133EF41E050E00E94C21D49015A013F
:103AE0009B01AC01A7EAB1E40E94E11D6B017C01DE
:103AF000ACEEB4EFA50194010E94EF1DDC01CB01F7
:103B00008C0D9D1DAE1DBF1DB7FF03C00197A10900
:103B1000B04888839983AA83BB83BC01CD019F777A
:103B2000DF91CF91FF90EF90DF90CF90BF90AF905B
:103B30009F908F9008950E94501D089581E191E01B
:103B40000E94501D0895609311017093120180939B
:103B50001301909314010895F999FECF92BD81BD90
:103B6000F89A992780B50895262FF999FECF1FBAA4
:103B700092BD81BD20BD0FB6F894FA9AF99A0FBE96
:103B800001960895052E97FB1EF400940E94D91DFE
:103B900057FD07D00E94F41D07FC03D04EF40C948F
:103BA000D91D50954095309521953F4F4F4F5F4F10
:103BB000089590958095709561957F4F8F4F9F4F99
:103BC00008950E94161EA59F900DB49F900DA49F6E
:103BD000800D911D11240895B7FF0C94E11D0E94E2
:103BE000E11D821B930B0895A1E21A2EAA1BBB1B99
:103BF000FD010DC0AA1FBB1FEE1FFF1FA217B307B9
:103C0000E407F50720F0A21BB30BE40BF50B661FCE
:103C1000771F881F991F1A9469F760957095809592
:103C200090959B01AC01BD01CF010895A29FB00109
:103C3000B39FC001A39F700D811D1124911DB29FE0
:103C4000700D811D1124911D0895AA1BBB1B51E10C
:103C500007C0AA1FBB1FA617B70710F0A61BB70BFC
:103C6000881F991F5A95A9F780959095BC01CD01A1
:103C70000895EE0FFF1F0590F491E02D099481E067
:0C3C800090E0F8940C94441EF894FFCFE0
:103C8C000150000203FFFFFFFF00E10000000000F5
:103C9C00000100000000000000D71212139713ED72
:103CAC0012F812BF139B1300000000BB0818066427
:103CBC000663062017FCFF0000771700C180810007
:0A3CCC00000050726573732042007F
:00000001FF
